:020000040800F2
:10000000E8020020690100088F0100089101000842
:100010009301000895010008970100080000000006
:10002000000000000000000000000000990100082E
:100030009B010008000000009D0100089F010008CE
:10004000A1010008A101000800000000A1010008B2
:10005000A1010008A1010008A1010008A1010008F8
:1000600000000000A1010008A1010008A101000892
:10007000A1010008A1010008A1010008A1010008D8
:10008000A10100080000000000000000A10100081C
:1000900000000000A1010008A1010008A101000862
:1000A0000000000000000000A101000800000000A6
:1000B000A101000800F002F800F046F80CA030C8DA
:1000C000083824182D18A246671EAB4654465D46D4
:1000D000AC4201D100F038F87E460F3E0FCCB64658
:1000E0000126334200D0FB1AA246AB4633431847E1
:1000F000C00B0000E00B0000103A02D378C878C1B2
:10010000FAD8520701D330C830C101D504680C6059
:10011000704700000023002400250026103A01D378
:1001200078C1FBD8520700D330C100D50B607047AF
:1001300010B5782902D100F091F810BD002010BD53
:100140001FB51FBD10B510BD00F061FA1146FFF7D5
:10015000F7FF00F0F3FC00F079FA03B4FFF7F2FFC9
:1001600003BC00F07FFA0000114880F308881148B2
:100170000168090E104A914205D1104810490160EA
:100180001048114901601148804711480047FEE7B7
:10019000FEE7FEE7FEE7FEE7FEE7FEE7FEE7FEE737
:1001A000FEE700000B480C490A4A0C4B7047000060
:1001B000E8020020040000001F00000018100240A8
:1001C0000100000000000140000000007509000867
:1001D000B5000008E8000020E8020020E800002048
:1001E0000FB41CB5084B06AA7B44694600900598DD
:1001F00000F0F5F904460020694600F003FA2046B5
:100200001CBC08BC04B018471904000070B50446B3
:1002100085690068C10601D5302600E02026C007A8
:1002200007D070BD62683046A1689047206A401CC4
:1002300020626D1EF6D570BD70B5044685690078E4
:10024000C00707D170BD6268A16820209047206A6E
:10025000401C20626D1EF6D570BD000070B50446CE
:100260000D4621461068C046C0462188090502D5C2
:100270000F4A7A4402E00E4A7A440E3223460021A5
:10028000243305E006070009360F965D5E54491CCD
:100290000028F7D120780023000705D5702D03D062
:1002A000002901D002231132204600F03AF970BD36
:1002B000120A0000F3B50446002081B020622046F7
:1002C000E168884700287AD0252802D06268A168B2
:1002D00071E0E16820460025884706460020E0617D
:1002E0000746A0612A2E0AD0304600F01FFC0028E5
:1002F00027D0B8000019303E0090866119E00298BE
:10030000BA00121902C8916102902046E16888473C
:10031000012F064617D1E06900281FDA2020854307
:100320001CE000980A218069484300998019303800
:1003300088612046E1688847064600F0F7FB002800
:10034000EFD1012F0AD02E2E08D12046E168884730
:100350000646202005437F1C022FC3DBA06900282E
:1003600003DA4042A06101200543E80701D01020D4
:100370008543002E23D030464138192803D8012068
:10038000C00205432036204625603146029A1546B4
:10039000FFF7CEFE00280BD0012806D0ED1DE8089F
:1003A000C000083002908AE709E02D1D029586E71B
:1003B00062683046A1689047206A401C7EE7206A48
:1003C000FEBD002203098B422CD3030A8B4211D3BA
:1003D00000239C464EE003460B433CD400224308D6
:1003E0008B4231D303098B421CD3030A8B4201D3C6
:1003F00094463FE0C3098B4201D3CB01C01A52415E
:1004000083098B4201D38B01C01A524143098B42AD
:1004100001D34B01C01A524103098B4201D30B0196
:10042000C01A5241C3088B4201D3CB00C01A5241BB
:1004300083088B4201D38B00C01A524143088B4280
:1004400001D34B00C01A5241411A00D20146524119
:10045000104670475DE0CA0F00D04942031000D338
:100460004042534000229C4603098B422DD3030A8D
:100470008B4212D3FC22890112BA030A8B420CD39D
:10048000890192118B4208D3890192118B4204D3C6
:1004900089013AD0921100E08909C3098B4201D346
:1004A000CB01C01A524183098B4201D38B01C01A80
:1004B000524143098B4201D34B01C01A52410309F7
:1004C0008B4201D30B01C01A5241C3088B4201D3A6
:1004D000CB00C01A524183088B4201D38B00C01A53
:1004E0005241D9D243088B4201D34B00C01A52412A
:1004F000411A00D20146634652415B10104601D3B7
:100500004042002B00D54942704763465B1000D340
:10051000404201B50020C046C04602BD704770474A
:100520007047FFB504460D4681B024300090216825
:10053000880604D51022E0699143216000E0012083
:10054000A84201DD471B00E000270498A1697A1941
:100550001018081AA0612078C00602D42046FFF7C0
:1005600055FE002608E003986268A168805D904708
:10057000206A401C761C206204988642F3DB2078B7
:10058000C0060AD52046FFF741FE06E06268A16872
:1005900030209047206A401C206238467F1E002889
:1005A000F4DC07E000986268A168405D9047206A2B
:1005B000401C206228466D1E0028F3DC2046FFF711
:1005C0003BFE2078000602D5022005B0F0BD0120D8
:1005D000FBE7000001694A1C02610878704700B51A
:1005E0008FB002910021059105490193794403914F
:1005F000114604906846FFF75DFE0FB000BD000095
:10060000E5FFFFFF0A681070521C0A6070477546CC
:1006100000F024F8AE46050069465346C008C00005
:10062000854618B020B5FFF7BDFD60BC002749081E
:10063000B6460026C0C5C0C5C0C5C0C5C0C5C0C57A
:10064000C0C5C0C5403D49008D46704710B5044641
:10065000C046C0462046FFF780FD10BD00487047E9
:100660008400002001491820ABBEFEE726000200EE
:100670007047000008B5042168460180032181709D
:100680000421C17069460920C00600F01FF800214E
:10069000C943684601806946094800F017F80021FF
:1006A000C943684601806946064800F00FF80421F6
:1006B000684601806946044800F008F808BD00005B
:1006C0000004004800080048000C0048FCB5024641
:1006D0000025002601960020002300240096CE78F5
:1006E00035072D0FCE7810273E40002E01D08E7892
:1006F00035430E78002E27D01468002021E0012613
:10070000864033460E881E400196019E9E4217D1B8
:1007100083000F269E4000962746009EB7433C4626
:100720002E469E403443CE78282E03D101268640A3
:10073000566105E0CE78482E02D10126864016612A
:10074000401C0828DBD314600E88FF2E2CDD546873
:10075000002026E0064608360127B7403B460E88B3
:100760001E400196019E9E421AD183000F269E4094
:1007700000962746009EB7433C462E469E40344393
:10078000CE78282E04D1064608360127B740576197
:10079000CE78482E04D1064608360127B7401761A7
:1007A000401C0828D6D35460FCBDF0B500230024BB
:1007B0004D07EE0E1546B5402B46CD10002D0BD142
:1007C000056A4E07F70E0F26BE40B5430562056A5F
:1007D0001D432C4604620AE0456A4E07F70E0F26B9
:1007E000BE40B5434562456A1D432C464462F0BD98
:1007F0000146886880B27047002905D0054A5269D1
:100800000243044B5A6104E0024A52698243014B9D
:100810005A61704700100240002905D0054AD2698C
:100820000243044BDA6104E0024AD2698243014B7D
:10083000DA6170470010024010B501214804FFF74B
:10084000DBFF01218804FFF7D7FF0121C804FFF770
:10085000D3FF01210805FFF7CFFF10BD10B5002120
:100860000022204B5B680C2423401946002906D047
:10087000042907D0082908D00C290CD108E01A4B0C
:1008800003600BE0184B036008E0184B036005E0C1
:10089000174B036002E0144B036000BF00BF114B15
:1008A0005B68F024234019460909124B5A5C03681F
:1008B000D34043600B4B5B68072424022340194656
:1008C000090A0C4B5A5C4368D3408360054B5B6854
:1008D000E40023401946C90A064B5A5C4368D340DA
:1008E000C36010BD0010024000127A00006CDC02F0
:1008F000409C00001000002010B500F001F810BD71
:1009000000201A49096801221143184A116000BFEA
:1009100016490968022211400029F9D013490968D3
:10092000D2049143114A116011460968042291438F
:100930000E4A11601115516011210D4A11600B49C9
:10094000496889088900094A5160114649680222AC
:100950001143064A516005E0044949688905080EBB
:100960008007800F0228F7D1704700000010024076
:100970000020024010B510480068012108430E49CC
:100980000860084640680D4908400B494860084621
:10099000006809210904884307490860084600687F
:1009A000012189048843044908609F20000488606D
:1009B000FFF7A2FF10BD0000001002400000FFF092
:1009C000002904D0826901231A43826103E082690D
:1009D000014B1A4082617047FEFF00000246002072
:1009E00093680B40002B01D0012000E000207047ED
:1009F000F0B587B004460D4600260020069005900D
:100A000000272746E669CF21304688430646A88856
:100A1000E9880843298908430643E661A6697609FF
:100A20007601A889698908430643A66101A8FFF7F2
:100A300015FF0C48874202D10398069001E0049804
:100A4000069029680698FFF7BCFC060929680698F5
:100A5000FFF7B7FC0007000F05902662059860625B
:100A600007B0F0BD00440040CAB202607047000009
:100A700010B5044621460548FFF7F6FF00BF0121E7
:100A80000248FFF7ABFF0028F9D010BD004400403A
:100A900070B504460D4603E02078641CFFF7E8FFBC
:100AA0002846691E8DB20028F6D170BD10B586B0FB
:100AB000044601214804FFF7AFFE03220621092066
:100AC000C006FFF772FE042207211648FFF76DFEED
:100AD0000194302168460181002141818181018298
:100AE0001821C18101A91048FFF782FF80216846C3
:100AF0008182032181751821C17505A90948FFF775
:100B0000E5FD4021684681820421C17505A90920BF
:100B1000C006FFF7DBFD01210348FFF751FF06B0D8
:100B200010BD0000000400480044004030380A288E
:100B300001D2012070470020704700004B20C00107
:100B4000FFF7B4FFFFF778FEFFF794FD6CE0092094
:100B5000C006FFF74DFE3549084035490880354845
:100B6000FFF746FE324948803348FFF741FE3049DF
:100B700088803248FFF73CFE042108402C49C88099
:100B8000084600882E49098888420ED028480088E7
:100B90002B490880084602882AA12E48FFF720FB2F
:100BA00084B221462B48FFF773FF2148408824492F
:100BB000498888420ED01E4840882149488008460E
:100BC000428825A12348FFF70BFB84B22146214828
:100BD000FFF75EFF164880881949898888420ED041
:100BE0001348808816498880084682881EA11948C3
:100BF000FFF7F6FA84B221461648FFF749FF0C4882
:100C0000C0880F49C98888420ED00948C0880C495D
:100C1000C8800846C28818A10E48FFF7E1FA84B2DE
:100C200021460C48FFF734FF91E70000FF990000D0
:100C3000080000200004004800080048000C00489C
:100C4000000000204750494F41203D202534780DB9
:100C50000A000000200000204750494F42203D205C
:100C60002534780D0A0000004750494F43203D20AD
:100C70002534780D0A0000004750494F44203D209C
:100C80002534780D0A0000003031323334353637E0
:100C900038394142434445464030580030313233C0
:100CA00034353637383961626364656640307800C0
:100CB000D00C00080000002020000000F800000810
:100CC000F00C000820000020C802000014010008F9
:100CD0000000000000000000000000000000000014
:100CE00000000000010203040102030406070809D2
:04000005080000B53A
:00000001FF
