:020000040800F2
:10000000F004002091010008B7010008B9010008C0
:10001000BB010008BD010008BF010008000000008E
:10002000000000000000000000000000C101000806
:10003000C301000800000000C5010008A108000875
:10004000C9010008C901000800000000C90100083A
:10005000C9010008C9010008C9010008C901000858
:1000600000000000C9010008C9010008C90100081A
:10007000C9010008C9010008C9010008C901000838
:10008000C90100080000000000000000C9010008CC
:1000900000000000C9010008C9010008C9010008EA
:1000A0000000000000000000C9010008000000007E
:1000B0002509000800F002F800F03EF80CA030C856
:1000C000083824182D18A246671EAB4654465D46D4
:1000D000AC4201D100F030F87E460F3E0FCCB64660
:1000E0000126334200D0FB1AA246AB4633431847E1
:1000F000200C0000400C0000103A02D378C878C1F0
:10010000FAD8520701D330C830C101D504680C6059
:10011000704700000023002400250026103A01D378
:1001200078C1FBD8520700D330C100D50B607047AF
:100130001FB51FBD10B510BD00F05BF91146FFF7EC
:10014000F7FF00F089FD00F073F903B4FFF7F2FF49
:1001500003BC00F079F9000070B505460C46164660
:1001600002E00FCC0FC5103E102EFAD2082E02D39B
:1001700003CC03C5083E042E07D301CC01C5361FAE
:1001800003E021782970641C6D1C761EF9D270BDC5
:10019000114880F3088811480168090E104A9142FD
:1001A00005D11048104901601048114901601148FB
:1001B000804711480047FEE7FEE7FEE7FEE7FEE75F
:1001C000FEE7FEE7FEE7FEE7FEE700000B480C490E
:1001D0000A4A0C4B70470000F004002004000000A5
:1001E0001F00000018100240010000000000014044
:1001F00000000000D9080008B5000008F002002047
:10020000F0040020F00200200FB41CB5084B06AA31
:100210007B4469460090059800F0C1F80446002030
:10022000694600F0CFF820461CBC08BC04B0184753
:10023000B1010000002203098B422CD3030A8B4238
:1002400011D300239C464EE003460B433CD40022CE
:1002500043088B4231D303098B421CD3030A8B42E0
:1002600001D394463FE0C3098B4201D3CB01C01AAE
:10027000524183098B4201D38B01C01A5241430979
:100280008B4201D34B01C01A524103098B4201D367
:100290000B01C01A5241C3088B4201D3CB00C01AD4
:1002A000524183088B4201D38B00C01A524143084C
:1002B0008B4201D34B00C01A5241411A00D2014671
:1002C0005241104670475DE0CA0F00D0494203100A
:1002D00000D34042534000229C4603098B422DD359
:1002E000030A8B4212D3FC22890112BA030A8B4201
:1002F0000CD3890192118B4208D3890192118B4250
:1003000004D389013AD0921100E08909C3098B42D4
:1003100001D3CB01C01A524183098B4201D38B0117
:10032000C01A524143098B4201D34B01C01A5241BA
:1003300003098B4201D30B01C01A5241C3088B42FF
:1003400001D3CB00C01A524183088B4201D38B00EA
:10035000C01A5241D9D243088B4201D34B00C01A74
:100360005241411A00D20146634652415B10104689
:1003700001D34042002B00D54942704763465B10D1
:1003800000D3404201B50020C046C04602BD7047C0
:100390007047704701694A1C02610878704700B5D0
:1003A0008FB0029100210591054901937944039191
:1003B00011460490684600F00AF80FB000BD000036
:1003C000E5FFFFFF0A681070521C0A607047F8B51D
:1003D000064600244768806800903046F56803E0D0
:1003E0000099B847641C3046A8470028F8D1204639
:1003F000F8BD754600F024F8AE4605006946534640
:10040000C008C000854618B020B5FFF7DFFE60BC0D
:1004100000274908B6460026C0C5C0C5C0C5C0C52E
:10042000C0C5C0C5C0C5C0C5403D49008D46704768
:1004300010B50446C046C0462046FFF786FE10BDF4
:10044000004870479002002001491820ABBEFEE72B
:10045000260002007047000070B504460D460920D2
:10046000C006844204D129460120400400F06CF902
:100470000B48844203D12946000200F065F909487F
:10048000844203D12946000200F05EF90648844206
:1004900004D129460120000500F056F970BD000086
:1004A0000004004800080048000C004808B501217D
:1004B0000748FFF7D1FF01216846018003218170C1
:1004C0001021C1706946024800F004F808BD000020
:1004D00000040048FCB502460025002601960020D5
:1004E000002300240096CE7835072D0FCE781027F4
:1004F0003E40002E01D08E7835430E78002E27D056
:100500001468002021E00126864033460E881E40F4
:100510000196019E9E4217D183000F269E400096B1
:100520002746009EB7433C462E469E403443CE7835
:10053000282E03D101268640566105E0CE78482E4C
:1005400002D1012686401661401C0828DBD31460C6
:100550000E88FF2E2CDD5468002026E00646083663
:100560000127B7403B460E881E400196019E9E42E1
:100570001AD183000F269E4000962746009EB7435F
:100580003C462E469E403443CE78282E04D1064663
:1005900008360127B7405761CE78482E04D1064669
:1005A00008360127B7401761401C0828D6D354608D
:1005B000FCBDF0B5002300244D07EE0E1546B540F6
:1005C0002B46CD10002D0BD1056A4E07F70E0F26D6
:1005D000BE40B5430562056A1D432C4604620AE02D
:1005E000456A4E07F70E0F26BE40B5434562456A81
:1005F0001D432C464462F0BD4161704710B57D211A
:10060000C9000E480068FFF715FE0446601E0C493D
:10061000884200D90CE0601E0A4948610321081F86
:1006200000F056F80020074988610720086100BFE4
:100630000021481E00F04CF810BD00001000002002
:10064000FFFFFF0000E000E008B51C2168460170D4
:10065000012181700021417000F002F808BD000006
:1006600000218278002A27D0184A03231B02D218BF
:1006700003789B109B00D15802789207D30EFF227B
:100680009A400B469343194642789207120E03781C
:100690009B07DB0E9A4011430C4A03231B02D2181E
:1006A00003789B109B00D1500278D306DB0E012209
:1006B0009A40064B1A6007E00278D306DB0E01224F
:1006C0009A40024B80331A607047000000E100E05E
:1006D00010B5002819DA1A4A03071B0F083B9B08BC
:1006E0009B00D2588307DC0EFF23A3409A438B075D
:1006F0001B0E8407E40EA3401A43114B0407240F7A
:10070000083CA408A4001A5118E00E4A03231B0257
:10071000D21883089B00D2588307DC0EFF23A34026
:100720009A438B071B0E8407E40EA3401A43054B24
:10073000032424021B198408A4001A5110BD0000D0
:100740001CED00E000E100E0002905D0054A5269F7
:100750000243044B5A6104E0024A52698243014B4E
:100760005A61704700100240002905D0054AD2693D
:100770000243044BDA6104E0024AD2698243014B2E
:10078000DA6170470010024010B500210022204BB2
:100790005B680C2423401946002906D0042907D0A1
:1007A000082908D00C290CD108E01A4B03600BE093
:1007B000184B036008E0184B036005E0174B03601B
:1007C00002E0144B036000BF00BF114B5B68F024D4
:1007D000234019460909124B5A5C0368D340436011
:1007E0000B4B5B680724240223401946090A0C4B73
:1007F0005A5C4368D3408360054B5B68E400234048
:100800001946C90A064B5A5C4368D340C36010BD01
:100810000010024000127A00006CDC02409C0000D4
:100820002400002010B500F001F810BD00201A4986
:10083000096801221143184A116000BF164909686E
:10084000022211400029F9D013490968D2049143CA
:10085000114A116011460968042291430E4A116041
:100860001115516011210D4A11600B494968890821
:100870008900094A51601146496802221143064A1B
:10088000516005E0044949688905080E8007800F1A
:100890000228F7D1704700000010024000200240FB
:1008A0000B4801680068401C094A1060FF20F530C1
:1008B000814202D9002011460860064800680028DD
:1008C00004D004480068401E0249086070470000D8
:1008D000040000200800002010B510480068012125
:1008E00008430E490860084640680D4908400B4916
:1008F00048600846006809210904884307490860E0
:1009000008460068012189048843044908609F2043
:1009100000048860FFF786FF10BD00000010024051
:100920000000FFF070B5194D0221284600F0BCF818
:1009300000282AD00221284600F09BF8284600F023
:1009400003F9C4B2124801780078401C104A1070B4
:10095000104844541048C088002816DD0E488068AE
:1009600004700D488068401C0B4988600846C088A8
:10097000401EC8800846C088002806D101200871A2
:1009800000220221284600F099F870BD0044004082
:100990000C000020900100208401002070B5044666
:1009A0000D461A48C078002823D101201749C87085
:1009B000002008710846C5808460007800280AD0AD
:1009C00008460078012805D101220221104800F0D4
:1009D00075F800E000BF0D488078012814D100BFF1
:1009E0000A4800790028FBD000200849C87001207F
:1009F00070BD06480079002804D000200349C87063
:100A00000120F5E70020F3E70020F1E78401002052
:100A1000004400400120064908700420487001206D
:100A200088700020C87008718860C8807047000016
:100A3000840100200020064908700420487001202D
:100A400088700020C87008718860C88070470000F6
:100A50007801002070B504460D4603E02078641C40
:100A600000F084F82846691E8DB20028F6D10120D6
:100A700070BD416170470000002904D082690123E4
:100A80001A43826103E08269014B1A408261704718
:100A9000FEFF00000246002093680B40002B01D0AF
:100AA000012000E00020704702460020D3680B4080
:100AB000002B01D0012000E000207047002A03D065
:100AC00003690B43036102E003698B4303617047D1
:100AD000F0B587B004460D4600260020069005902C
:100AE00000272746E669CF21304688430646A88876
:100AF000E9880843298908430643E661A66976091F
:100B00007601A889698908430643A66101A8FFF711
:100B10003BFE0C48874202D10398069001E00498FE
:100B2000069029680698FFF785FB0609296806984C
:100B3000FFF780FB0007000F0590266205986062B2
:100B400007B0F0BD0044004001464868C0B270479D
:100B5000CAB20260704710B5044603E02078641CF6
:100B600000F004F820780028F8D110BD10B5044634
:100B700021460548FFF7ECFF00BF01210248FFF7BF
:100B800089FF0028F9D010BD0044004070B504462C
:100B90000D4603E02078641CFFF7E8FF2846691E35
:100BA0008DB20028F6D170BD10B586B00446FFF7AF
:100BB00041FFFFF72FFFFFF747FD01214804FFF733
:100BC000D3FD012103204004FFF7BEFD03220621CF
:100BD0000920C006FFF7EDFC042207211848FFF7A3
:100BE000E8FC019430216846018100214181818126
:100BF00001821821C18101A91248FFF769FF012272
:100C000002211048FFF75AFF01210E48FFF734FF79
:100C1000802168468182032181751821C17505A94B
:100C20000748FFF757FC4021684681820421C175BF
:100C300005A90920C006FFF74DFC06B010BD000055
:100C40000004004800440040014600BF0A46491E17
:100C5000002AFBD170470000FFF7D0FCFFF726FC0D
:100C6000E1204002FFF7A0FF14A11848FFF7CCFADB
:100C700085B229461548FFF789FF15A0FFF76BFFDE
:100C800017A0FFF768FF17E001211E48FFF7B4FC2B
:100C90007D20C000FFF7D8FF0A211B48FFF77EFE2A
:100CA0000446012C08D10A2217491848FFF754FAC4
:100CB0000A211648FFF7CEFEE6E70000737072695E
:100CC0006E7466206F6B0D0A00000000FC000020AF
:100CD0005561727453656E6441736369690D0A00EE
:100CE000506C6561736520696E7075742064617401
:100CF00061202C656E64207769746820275C6E27FC
:100D0000200D0A0000040048340000209800002054
:100D1000300D00080000002034000000F80000083A
:100D2000640D000834000020BC0400001401000819
:100D300000000000000000000000000000000000B3
:100D4000006CDC020000000000000000010203044F
:100D50000607080900000000010203040102030461
:040D60000607080971
:04000005080000B53A
:00000001FF
