:020000040800F2
:1000000020030020590100087F0100088101000839
:100010008301000885010008870100080000000036
:10002000000000000000000000000000890100083E
:100030008B010008000000008D0100083109000854
:1000400091010008910100080000000091010008E2
:100050009101000891010008910100089101000838
:1000600000000000910100089101000891010008C2
:100070009101000891010008910100089101000818
:10008000910100080000000000000000910100083C
:100090000000000091010008910100089101000892
:1000A00000000000000000009101000800000000B6
:1000B0009101000800F002F800F03EF80CA030C8F2
:1000C000083824182D18A246671EAB4654465D46D4
:1000D000AC4201D100F030F87E460F3E0FCCB64660
:1000E0000126334200D0FB1AA246AB4633431847E1
:1000F000500C0000700C0000103A02D378C878C190
:10010000FAD8520701D330C830C101D504680C6059
:10011000704700000023002400250026103A01D378
:1001200078C1FBD8520700D330C100D50B607047AF
:100130001FB51FBD10B510BD00F05FF91146FFF7E8
:10014000F7FF00F0A1FD00F077F903B4FFF7F2FF2D
:1001500003BC00F07DF90000114880F308881148C5
:100160000168090E104A914205D1104810490160FA
:100170001048114901601148804711480047FEE7C7
:10018000FEE7FEE7FEE7FEE7FEE7FEE7FEE7FEE747
:10019000FEE700000B480C490A4A0C4B7047000070
:1001A00020030020040000001F000000181002407F
:1001B0000100000000000140000000006909000883
:1001C000B5000008200100202003002020010020AD
:1001D0000FB41CB5084B06AA7B44694600900598ED
:1001E00000F0E1F804460020694600F0EFF82046F0
:1001F0001CBC08BC04B01847F101000001E004C0B9
:10020000091F0429FBD28B0701D50280801CC90776
:1002100000D00270704700290BD0C30702D00270D3
:10022000401C491E022904D3830702D50280801C8A
:10023000891EE3E70022EEE70022DFE70022030940
:100240008B422CD3030A8B4211D300239C464EE0F1
:1002500003460B433CD4002243088B4231D30309AD
:100260008B421CD3030A8B4201D394463FE0C3095F
:100270008B4201D3CB01C01A524183098B4201D377
:100280008B01C01A524143098B4201D34B01C01A62
:10029000524103098B4201D30B01C01A5241C308DA
:1002A0008B4201D3CB00C01A524183088B4201D349
:1002B0008B00C01A524143088B4201D34B00C01A35
:1002C0005241411A00D201465241104670475DE04A
:1002D000CA0F00D04942031000D3404253400022CD
:1002E0009C4603098B422DD3030A8B4212D3FC2276
:1002F000890112BA030A8B420CD3890192118B42F5
:1003000008D3890192118B4204D389013AD092110A
:1003100000E08909C3098B4201D3CB01C01A5241C5
:1003200083098B4201D38B01C01A524143098B428E
:1003300001D34B01C01A524103098B4201D30B0177
:10034000C01A5241C3088B4201D3CB00C01A52419C
:1003500083088B4201D38B00C01A5241D9D2430883
:100360008B4201D34B00C01A5241411A00D20146C0
:10037000634652415B10104601D34042002B00D52A
:100380004942704763465B1000D3404201B50020EC
:10039000C046C04602BD70477047704701694A1C9D
:1003A00002610878704700B58FB002910021059175
:1003B000054901937944039111460490684600F081
:1003C0000AF80FB000BD0000E5FFFFFF0A681070DB
:1003D000521C0A607047F8B50646002447688068DA
:1003E00000903046F56803E00099B847641C304639
:1003F000A8470028F8D12046F8BD754600F024F83B
:10040000AE46050069465346C008C000854618B090
:1004100020B5FFF7BFFE60BC00274908B64600269E
:10042000C0C5C0C5C0C5C0C5C0C5C0C5C0C5C0C5A4
:10043000403D49008D46704710B50446C046C04651
:100440002046FFF782FE10BD00487047BC00002028
:1004500001491820ABBEFEE72600020070470000ED
:10046000014948607047000000000240002904D0A4
:10047000026801231A43026003E002685208520036
:10048000026070470168490849000160002101606D
:1004900041608160C160224A811A90421ED006DC10
:1004A00020494118002907D0142935D10DE014291D
:1004B0001ED0282930D125E01949303949680F224A
:1004C0001143174A303A516027E0154930394968DD
:1004D000F0221143124A303A51601EE0104930397F
:1004E00049680F22120211430D4A303A516014E05C
:1004F0000B49303949680F2212031143084A303A38
:1005000051600AE00649303949680F22120411434C
:10051000034A303A516000E000BF00BF704700005E
:1005200030000240F8FFFDBF014600200022054BCD
:100530001A6813460B40002B01D0012000E0002078
:100540007047000000000240002A03D003680B43FC
:10055000036002E003688B430360704710B500221C
:1005600002680D4B1A400C6A8B6823430C692343C5
:100570004C6923438C692343CC6923434C6A23434E
:100580008C6A23431A430260CB6843600B68836024
:100590004B68C36010BD00000F80FFFFC160704753
:1005A000012904D1026880231A43026003E0026833
:1005B00080239A43026070474160704770B50546DA
:1005C0000E461446012202212846FFF7BDFF0021F6
:1005D0002846FFF74BFF31462846FFF7DFFFA1B261
:1005E0002846FFF7E9FF01212846FFF73FFF70BDCE
:1005F000FCB50246002500260196002000230024B9
:100600000096CE7835072D0FCE7810273E40002E6D
:1006100001D08E7835430E78002E27D01468002044
:1006200021E00126864033460E881E400196019E39
:100630009E4217D183000F269E4000962746009EBB
:10064000B7433C462E469E403443CE78282E03D1F5
:1006500001268640566105E0CE78482E02D101265B
:1006600086401661401C0828DBD314600E88FF2EDC
:100670002CDD5468002026E0064608360127B740E6
:100680003B460E881E400196019E9E421AD1830071
:100690000F269E4000962746009EB7433C462E46B6
:1006A0009E403443CE78282E04D1064608360127D2
:1006B000B7405761CE78482E04D106460836012748
:1006C000B7401761401C0828D6D35460FCBDF0B574
:1006D000002300244D07EE0E1546B5402B46CD10E5
:1006E000002D0BD1056A4E07F70E0F26BE40B5430D
:1006F0000562056A1D432C4604620AE0456A4E07FE
:10070000F70E0F26BE40B5434562456A1D432C4691
:100710004462F0BD10B57D21C9000E480068FFF7A6
:100720008DFD0446601E0C49884200D90CE0601E15
:100730000A4948610321081F00F012F80020074908
:1007400088610720086100BF0021481E00F008F8FA
:1007500010BD000018000020FFFFFF0000E000E0D7
:1007600010B5002819DA1A4A03071B0F083B9B082B
:100770009B00D2588307DC0EFF23A3409A438B07CC
:100780001B0E8407E40EA3401A43114B0407240FE9
:10079000083CA408A4001A5118E00E4A03231B02C7
:1007A000D21883089B00D2588307DC0EFF23A34096
:1007B0009A438B071B0E8407E40EA3401A43054B94
:1007C000032424021B198408A4001A5110BD000040
:1007D0001CED00E000E100E0002905D0054A526967
:1007E0000243044B5A6104E0024A52698243014BBE
:1007F0005A61704700100240002905D0054AD269AD
:100800000243044BDA6104E0024AD2698243014B9D
:10081000DA6170470010024010B500210022204B21
:100820005B680C2423401946002906D0042907D010
:10083000082908D00C290CD108E01A4B03600BE002
:10084000184B036008E0184B036005E0174B03608A
:1008500002E0144B036000BF00BF114B5B68F02443
:10086000234019460909124B5A5C0368D340436080
:100870000B4B5B680724240223401946090A0C4BE2
:100880005A5C4368D3408360054B5B68E4002340B7
:100890001946C90A064B5A5C4368D340C36010BD71
:1008A0000010024000127A00006CDC02409C000044
:1008B0002C00002010B500F001F810BD00201A49EE
:1008C000096801221143184A116000BF16490968DE
:1008D000022211400029F9D013490968D20491433A
:1008E000114A116011460968042291430E4A1160B1
:1008F0001115516011210D4A11600B494968890891
:100900008900094A51601146496802221143064A8A
:10091000516005E0044949688905080E8007800F89
:100920000228F7D17047000000100240002002406A
:100930000B4801680068401C094A1060FF20F53030
:10094000814202D90020114608600648006800284C
:1009500004D004480068401E024908607047000047
:10096000100000201400002010B51048006801217C
:1009700008430E490860084640680D4908400B4985
:10098000486008460068092109048843074908604F
:1009900008460068012189048843044908609F20B3
:1009A00000048860FFF786FF10BD000000100240C1
:1009B0000000FFF0F7B50546164600270121124852
:1009C000FFF7EEFD29461048019AFFF7F7FD0FE00B
:1009D00001204004FFF7A8FD002807D1012000F006
:1009E00045F97F1CB74203D90F2402E0012400E03F
:1009F000EEE700BF01204004FFF732FD002102486E
:100A0000FFF734FD2046FEBD5800024000B58BB014
:100A100001210846FFF7E0FE0D48FFF733FD0D48C2
:100A200000900D48019000200290012003900020CA
:100A30000490059006900790089003200003099009
:100A400000200A9069460248FFF788FD0BB000BD00
:100A500058000240044400403C00002000B58BB028
:100A600001210846FFF7B8FE0D48FFF70BFD0D48C2
:100A700000900D480190102002900120039000206A
:100A800004900590069007900890032000030990B9
:100A900000200A9069460248FFF760FD0BB000BDD8
:100AA00044000240004400400000002070B50446AD
:100AB0000D4601210B48FFF773FD2A4621460948E0
:100AC000FFF77CFD00BF01204003FFF72DFD00284C
:100AD000F9D001204003FFF7C3FC00210148FFF7D4
:100AE000C5FC70BD44000240002904D08269012386
:100AF0001A43826103E08269014B1A4082617047A8
:100B0000FEFF0000002A03D083690B43836102E0EB
:100B100083698B4383617047002A03D003690B43C9
:100B2000036102E003698B4303617047F0B587B04E
:100B300004460D4600260020069005900027274613
:100B4000E669CF21304688430646A888E9880843ED
:100B5000298908430643E661A66976097601A889D2
:100B6000698908430643A66101A8FFF755FE0C48B2
:100B7000874202D10398069001E004980690296804
:100B80000698FFF75BFB060929680698FFF756FBF6
:100B90000007000F059026620598606207B0F0BD5F
:100BA0000044004010B5044603E02078641C00F0C7
:100BB00004F820780028F8D110BD01B5012168465D
:100BC000FFF774FF08BD70B504460D462946204660
:100BD000FFF76CFF70BD000010B586B00446012120
:100BE0004804FFF709FE012103204004FFF7F4FD4C
:100BF000032206210920C006FFF769FD0422072110
:100C00001848FFF764FD01943021684601810021F6
:100C10004181818101821821C18101A91248FFF718
:100C200085FF012202211048FFF776FF01210E48BF
:100C3000FFF75AFF802168468182032181751821C0
:100C4000C17505A90748FFF7D3FC4021684681829A
:100C50000421C17505A90920C006FFF7C9FC06B02B
:100C600010BD000000040048004400400549086031
:100C700004E004490968002900D100E0F9E700BF59
:100C80007047000014000020FFF744FD0A20FFF722
:100C9000EDFFFFF7E3FEFFF7B9FEE1204002FFF7AB
:100CA0009BFF012202211248FFF72CFF11A11548DA
:100CB000FFF78EFA85B229461248FFF784FF12A08B
:100CC000FFF770FF14A0FFF76DFF0FE00A211B482C
:100CD000FFF7B0FA64220A211848FFF76BFE0446BA
:100CE000012C03D10A211548FFF76DFFEEE7000044
:100CF00000440040737072696E7466206F6B0D0A59
:100D0000000000004C0000205561727453656E6451
:100D100041736369690D0A00506C656173652069F0
:100D20006E7075742064617461202C656E64207728
:100D300069746820275C6E27200D0A00B00000202F
:100D4000600D0008000000203C000000F8000008D2
:100D50009C0D00083C000020E40200001401000883
:100D600055AABBDD3377221155AABBDD337722119B
:100D70000000000000000000006CDC020000000029
:100D8000000000000102030406070809000000003B
:0C0D900001020304010203040607080925
:04000005080000B53A
:00000001FF
