:020000040800F2
:10000000600200203D01000863010008650100084E
:1000100067010008690100086B010008000000008A
:100020000000000000000000000000006D0100085A
:100030006F01000800000000710100087301000852
:100040007501000875010008000000007501000836
:1000500075010008750100087501000875010008A8
:100060000000000075010008750100087501000816
:100070007501000875010008750100087501000888
:100080007501000800000000000000007501000874
:1000900000000000750100087501000875010008E6
:1000A00000000000000000007501000800000000D2
:1000B0007501000800F002F800F030F80CA030C81C
:1000C000083824182D18A246671EAB4654465D46D4
:1000D000AC4201D100F022F87E460F3E0FCCB6466E
:1000E0000126334200D0FB1AA246AB4633431847E1
:1000F000B4030000C40300000023002400250026F0
:10010000103A01D378C1FBD8520700D330C100D5D3
:100110000B6070471FB51FBD10B510BD00F04DF846
:100120001146FFF7F7FF00F0A7F900F065F803B4F8
:10013000FFF7F2FF03BC00F06BF80000114880F3FA
:10014000088811480168090E104A914205D11048EB
:100150001049016010481149016011488047114859
:100160000047FEE7FEE7FEE7FEE7FEE7FEE7FEE705
:10017000FEE7FEE7FEE700000B480C490A4A0C4B7D
:100180007047000060020020040000001F00000013
:1001900018100240010000000000014000000000B3
:1001A0001D040008B5000008600000206002002067
:1001B00060000020704770477047754600F024F8D3
:1001C000AE46050069465346C008C000854618B0D3
:1001D00020B5FFF7D1FF60BC00274908B6460026CE
:1001E000C0C5C0C5C0C5C0C5C0C5C0C5C0C5C0C5E7
:1001F000403D49008D46704710B50446C046C04694
:100200002046FFF794FF10BD004870470000002013
:1002100001491820ABBEFEE726000200704700002F
:1002200070B504460D460920C006844204D1294613
:100230000120400400F0A4F80B48844203D1294671
:10024000000200F09DF80948844203D129460002CB
:1002500000F096F80648844204D1294601200005A2
:1002600000F08EF870BD000000040048000800484F
:10027000000C004808B501210920C006FFF7D0FF97
:10028000102168460180032181701021C1706946E8
:100290000920C00600F001F808BDFCB502460025A3
:1002A000002601960020002300240096CE78350712
:1002B0002D0FCE7810273E40002E01D08E7835438A
:1002C0000E78002E27D01468002021E001268640F9
:1002D00033460E881E400196019E9E4217D1830030
:1002E0000F269E4000962746009EB7433C462E466A
:1002F0009E403443CE78282E03D101268640566195
:1003000005E0CE78482E02D1012686401661401CB9
:100310000828DBD314600E88FF2E2CDD54680020E3
:1003200026E0064608360127B7403B460E881E40A9
:100330000196019E9E421AD183000F269E40009690
:100340002746009EB7433C462E469E403443CE7817
:10035000282E04D1064608360127B7405761CE78CB
:10036000482E04D1064608360127B7401761401CC5
:100370000828D6D35460FCBD4161704701617047C5
:10038000002905D0054A52690243044B5A6104E032
:10039000024A52698243014B5A6170470010024081
:1003A00010B500F001F810BD00201A4909680122BB
:1003B0001143184A116000BF164909680222114012
:1003C0000029F9D013490968D2049143114A1160F8
:1003D00011460968042291430E4A116011155160BB
:1003E00011210D4A11600B49496889088900094AA1
:1003F00051601146496802221143064A516005E0E6
:10040000044949688905080E8007800F0228F7D142
:1004100070470000001002400020024010B5104854
:100420000068012108430E490860084640680D49EC
:1004300008400B49486008460068092109048843C0
:100440000749086008460068012189048843044977
:1004500008609F2000048860FFF7A2FF10BD000025
:10046000001002400000FFF0014600BF0A46491E8E
:10047000002AFBD170470000FFF7FCFE0FE01021BF
:100480000920C006FFF77AFF0548FFF7EDFF1021AE
:100490000920C006FFF770FF0148FFF7E5FFEEE710
:1004A000A0860100B40400080000002060020000E3
:0404B000F800000848
:04000005080000B53A
:00000001FF
