:020000040800F2
:10000000F004002091010008B7010008B9010008C0
:10001000BB010008BD010008BF010008000000008E
:10002000000000000000000000000000C101000806
:10003000C301000800000000C501000821080008F5
:10004000C9010008C901000800000000C90100083A
:10005000C9010008C9010008C9010008C901000858
:1000600000000000C9010008C9010008C90100081A
:10007000C9010008C9010008C9010008C901000838
:10008000C90100080000000000000000C9010008CC
:1000900000000000C9010008C9010008C9010008EA
:1000A0000000000000000000C9010008000000007E
:1000B000A508000800F002F800F03EF80CA030C8D7
:1000C000083824182D18A246671EAB4654465D46D4
:1000D000AC4201D100F030F87E460F3E0FCCB64660
:1000E0000126334200D0FB1AA246AB4633431847E1
:1000F000640C0000840C0000103A02D378C878C168
:10010000FAD8520701D330C830C101D504680C6059
:10011000704700000023002400250026103A01D378
:1001200078C1FBD8520700D330C100D50B607047AF
:100130001FB51FBD10B510BD00F05BF91146FFF7EC
:10014000F7FF00F093FD00F073F903B4FFF7F2FF3F
:1001500003BC00F079F9000070B505460C46164660
:1001600002E00FCC0FC5103E102EFAD2082E02D39B
:1001700003CC03C5083E042E07D301CC01C5361FAE
:1001800003E021782970641C6D1C761EF9D270BDC5
:10019000114880F3088811480168090E104A9142FD
:1001A00005D11048104901601048114901601148FB
:1001B000804711480047FEE7FEE7FEE7FEE7FEE75F
:1001C000FEE7FEE7FEE7FEE7FEE700000B480C490E
:1001D0000A4A0C4B70470000F004002004000000A5
:1001E0001F00000018100240010000000000014044
:1001F0000000000059080008B5000008F0020020C7
:10020000F0040020F00200200FB41CB5084B06AA31
:100210007B4469460090059800F0C1F80446002030
:10022000694600F0CFF820461CBC08BC04B0184753
:10023000B1010000002203098B422CD3030A8B4238
:1002400011D300239C464EE003460B433CD40022CE
:1002500043088B4231D303098B421CD3030A8B42E0
:1002600001D394463FE0C3098B4201D3CB01C01AAE
:10027000524183098B4201D38B01C01A5241430979
:100280008B4201D34B01C01A524103098B4201D367
:100290000B01C01A5241C3088B4201D3CB00C01AD4
:1002A000524183088B4201D38B00C01A524143084C
:1002B0008B4201D34B00C01A5241411A00D2014671
:1002C0005241104670475DE0CA0F00D0494203100A
:1002D00000D34042534000229C4603098B422DD359
:1002E000030A8B4212D3FC22890112BA030A8B4201
:1002F0000CD3890192118B4208D3890192118B4250
:1003000004D389013AD0921100E08909C3098B42D4
:1003100001D3CB01C01A524183098B4201D38B0117
:10032000C01A524143098B4201D34B01C01A5241BA
:1003300003098B4201D30B01C01A5241C3088B42FF
:1003400001D3CB00C01A524183088B4201D38B00EA
:10035000C01A5241D9D243088B4201D34B00C01A74
:100360005241411A00D20146634652415B10104689
:1003700001D34042002B00D54942704763465B10D1
:1003800000D3404201B50020C046C04602BD7047C0
:100390007047704701694A1C02610878704700B5D0
:1003A0008FB0029100210591054901937944039191
:1003B00011460490684600F00AF80FB000BD000036
:1003C000E5FFFFFF0A681070521C0A607047F8B51D
:1003D000064600244768806800903046F56803E0D0
:1003E0000099B847641C3046A8470028F8D1204639
:1003F000F8BD754600F024F8AE4605006946534640
:10040000C008C000854618B020B5FFF7DFFE60BC0D
:1004100000274908B6460026C0C5C0C5C0C5C0C52E
:10042000C0C5C0C5C0C5C0C5403D49008D46704768
:1004300010B50446C046C0462046FFF786FE10BDF4
:10044000004870479002002001491820ABBEFEE72B
:10045000260002007047FCB50246002500260196E2
:100460000020002300240096CE7835072D0FCE788B
:1004700010273E40002E01D08E7835430E78002E96
:1004800027D01468002021E00126864033460E88DC
:100490001E400196019E9E4217D183000F269E406A
:1004A00000962746009EB7433C462E469E40344366
:1004B000CE78282E03D101268640566105E0CE78FD
:1004C000482E02D1012686401661401C0828DBD345
:1004D00014600E88FF2E2CDD5468002026E00646AE
:1004E00008360127B7403B460E881E400196019E04
:1004F0009E421AD183000F269E4000962746009EFA
:10050000B7433C462E469E403443CE78282E04D135
:10051000064608360127B7405761CE78482E04D1E9
:10052000064608360127B7401761401C0828D6D375
:100530005460FCBDF0B5002300244D07EE0E1546B7
:10054000B5402B46CD10002D0BD1056A4E07F70E96
:100550000F26BE40B5430562056A1D432C46046262
:100560000AE0456A4E07F70E0F26BE40B5434562C6
:10057000456A1D432C464462F0BD000010B57D2144
:10058000C9000E480068FFF755FE0446601E0C497E
:10059000884200D90CE0601E0A4948610321081F07
:1005A00000F056F80020074988610720086100BF65
:1005B0000021481E00F04CF810BD00001000002083
:1005C000FFFFFF0000E000E008B51C216846017055
:1005D000012181700021417000F002F808BD000087
:1005E00000218278002A27D0184A03231B02D21840
:1005F00003789B109B00D15802789207D30EFF22FC
:100600009A400B469343194642789207120E03789C
:100610009B07DB0E9A4011430C4A03231B02D2189E
:1006200003789B109B00D1500278D306DB0E012289
:100630009A40064B1A6007E00278D306DB0E0122CF
:100640009A40024B80331A607047000000E100E0DE
:1006500010B5002819DA1A4A03071B0F083B9B083C
:100660009B00D2588307DC0EFF23A3409A438B07DD
:100670001B0E8407E40EA3401A43114B0407240FFA
:10068000083CA408A4001A5118E00E4A03231B02D8
:10069000D21883089B00D2588307DC0EFF23A340A7
:1006A0009A438B071B0E8407E40EA3401A43054BA5
:1006B000032424021B198408A4001A5110BD000051
:1006C0001CED00E000E100E0002905D0054A526978
:1006D0000243044B5A6104E0024A52698243014BCF
:1006E0005A61704700100240002905D0054AD269BE
:1006F0000243044BDA6104E0024AD2698243014BAF
:10070000DA6170470010024010B500210022204B32
:100710005B680C2423401946002906D0042907D021
:10072000082908D00C290CD108E01A4B03600BE013
:10073000184B036008E0184B036005E0174B03609B
:1007400002E0144B036000BF00BF114B5B68F02454
:10075000234019460909124B5A5C0368D340436091
:100760000B4B5B680724240223401946090A0C4BF3
:100770005A5C4368D3408360054B5B68E4002340C8
:100780001946C90A064B5A5C4368D340C36010BD82
:100790000010024000127A00006CDC02409C000055
:1007A0002400002010B500F001F810BD00201A4907
:1007B000096801221143184A116000BF16490968EF
:1007C000022211400029F9D013490968D20491434B
:1007D000114A116011460968042291430E4A1160C2
:1007E0001115516011210D4A11600B4949688908A2
:1007F0008900094A51601146496802221143064A9C
:10080000516005E0044949688905080E8007800F9A
:100810000228F7D17047000000100240002002407B
:100820000B4801680068401C094A1060FF20F53041
:10083000814202D90020114608600648006800285D
:1008400004D004480068401E024908607047000058
:10085000040000200800002010B5104800680121A5
:1008600008430E490860084640680D4908400B4996
:100870004860084600680921090488430749086060
:1008800008460068012189048843044908609F20C4
:1008900000048860FFF786FF10BD000000100240D2
:1008A0000000FFF070B5304D0221284600F01EF91F
:1008B00000282AD00221284600F0FEF8284600F041
:1008C00065F9C4B2294801780078401C274A1070A5
:1008D000274844542748C088002816DD25488068EA
:1008E000047024488068401C224988600846C088FB
:1008F000401EC8800846C088002806D10120087123
:1009000000220221284600F0FBF80121284600F0D1
:10091000EDF8002826D00121284600F0CDF8164831
:10092000C08800280FDD144880680178284600F050
:1009300031F911488068401C0F4988600846C0881A
:10094000401EC8800EE000220121284600F0D8F8A1
:1009500000BF0121284600F0BFF80028F9D001208F
:100960000549087170BD0000004400400C000020E3
:1009700090010020840100207801002070B5044619
:100980000D461A48C078002823D101201749C870A5
:10099000002008710846C5808460007800280AD0CD
:1009A00008460078012805D101220221104800F0F4
:1009B000A7F800E000BF0D488078012814D100BFDF
:1009C0000A4800790028FBD000200849C87001209F
:1009D00070BD06480079002804D000200349C87083
:1009E0000120F5E70020F3E70020F1E78401002073
:1009F0000044004001200549087004204870002090
:100A00008870C87008718860C880704784010020B1
:100A100001200649087004204870012088700020D9
:100A2000C87008718860C880704700007801002095
:100A300070B504460D461E48C078002824D1012018
:100A40001B49C8700020087108468460C580007882
:100A5000002819D008460078012814D10846C0881B
:100A6000401EC88008468068017811488068401C94
:100A70000F4B98600F4800F08DF8012211460D4889
:100A800000F03EF800E000BF09488078012805D159
:100A900000BF074800790028FBD004E00448007933
:100AA000002800D170BD00200149C8700120F9E77D
:100AB000780100200044004041617047002904D0C3
:100AC000826901231A43826103E08269014B1A4063
:100AD00082617047FEFF00000246002093680B40D1
:100AE000002B01D0012000E00020704702460020CA
:100AF000D3680B40002B01D0012000E0002070479C
:100B0000002A03D003690B43036102E003698B43AE
:100B100003617047F0B587B004460D4600260020FB
:100B20000690059000272746E669CF213046884386
:100B30000646A888E9880843298908430643E661F0
:100B4000A66976097601A889698908430643A661E2
:100B500001A8FFF7D9FD0C48874202D103980690FF
:100B600001E00498069029680698FFF763FB0609E0
:100B700029680698FFF75EFB0007000F05902662C4
:100B80000598606207B0F0BD004400400146486827
:100B9000C0B27047CAB20260704710B5044603E0A5
:100BA0002078641C00F004F820780028F8D110BDEB
:100BB00001B501216846FFF73BFF08BD70B504464B
:100BC0000D4629462046FFF733FF70BD10B586B0AD
:100BD0000446FFF71DFFFFF70DFFFFF7F5FC0121AE
:100BE0004804FFF781FD012103204004FFF76CFD5D
:100BF000032206210920C006FFF79CFC04220721DE
:100C00001848FFF797FC01943021684601810021C4
:100C10004181818101821821C18101A91248FFF718
:100C200079FF012202211048FFF76AFF01210E48D7
:100C3000FFF744FF802168468182032181751821D6
:100C4000C17505A90748FFF706FC40216846818267
:100C50000421C17505A90920C006FFF7FCFB06B0F9
:100C600010BD00000004004800440040FFF786FC6F
:100C7000E1204002FFF7AAFF16A11A48FFF7C4FAC5
:100C800085B229461748FFF799FF17A0FFF785FFA0
:100C900019A0FFF782FF1BE020A0FFF77EFF0120D5
:100CA000FFF786FF0020FFF783FF25A0FFF775FF02
:100CB0000A212648FFF762FE0446012C08D10A22C9
:100CC00022492348FFF748FA0A212148FFF7B0FEDE
:100CD000E2E70000737072696E7466206F6B0D0A34
:100CE00000000000FC0000205561727453656E64C2
:100CF00041736369690D0A00506C65617365206911
:100D00006E7075742064617461202C656E64207748
:100D100069746820275C6E27200D0A007374617265
:100D200074207062302070756C6C20757020737543
:100D3000636365737366756CA3A10D0A0000000000
:100D40003120275C6E27200D0A00000034000020AF
:100D500098000020740D00080000002034000000FE
:100D6000F8000008A80D000834000020BC040000B2
:100D70001401000800000000000000000000000056
:100D800000000000006CDC02000000000000000019
:100D90000102030406070809000000000102030421
:080DA000010203040607080923
:04000005080000B53A
:00000001FF
