:1040000078510000254D0000074B0000E34C0000F4
:10401000EF4C0000414D0000434D00000000000047
:10402000000000000000000000000000454D0000FE
:10403000474D000000000000494D00008B4100008A
:104040004B4D00004D4D0000000000004F4D0000A2
:10405000514D0000534D0000554D0000574D0000DC
:1040600000000000594D00005B4D00005D4D000058
:104070005F4D0000614D0000634D0000654D000084
:10408000674D00000000000000000000694D0000C6
:10409000000000006B4D00006D4D00006F4D0000F2
:1040A0000000000000000000714D00000000000052
:0440B000ED420000DD
:1040B400F0B503000C005BB2002B21D5A54A5BB21E
:1040C4001807000F0838850804204543A1485BB24F
:1040D4001907090F08398908042671434058FF213C
:1040E4009E07B60F08277E43B1408843A101C9B299
:1040F4009B079B0F082463439940014351511AE0E5
:10410400C7485BB29908042251434058FF219A07DB
:10411400920F08256A4391408843A101C9B29A07C6
:10412400920F0824624391400143BD485BB29A0850
:1041340004235A438150F0BD80B5411E80225204AD
:10414400914201D301200EE0401EB64908600321CC
:104154000020C043FFF7ACFF0020BA4908600720E5
:10416400B9490860002002BD80B5B8480068FA214A
:10417400890000F0A2F9FFF7DFFF00210020C0430F
:10418400FFF796FF01BD00B5B14800680100491C66
:10419400AF4A1160FF21F631884202D30020AC49B6
:1041A4000860AC480068002804D0AA480068401E93
:1041B400A849086000BD0020A74908700420A6494A
:1041C40048700120A44988700020A349C8700020C9
:1041D400A14908710020A049886000209E49C88038
:1041E400704701209D49087004209C4948700120B3
:1041F4009A49887000209949C8700020974908712D
:1042040000209649886000209449C880704780B592
:10421400924AD278002A24D10122904BDA700022EB
:104224008E4B1A718D4AD1808C4988608B480078F6
:10423400002809D089480078012805D101220221EB
:10424400874800F0D9F9FFE784488078012813D122
:10425400824800790028FBD000208049C8700120E2
:104264000BE07E480079002804D000207B49C87008
:10427400012002E0002000E0002002BD38B5050066
:104284000C0003E0287800F0CFF86D1C2000441ED9
:1042940080B20028F6D1012032BD10B5FFF764FFCB
:1042A400E120400200F066F86E496F4800F0D6F94C
:1042B400010089B26C4800F0E7F86C4800F0F2F8AD
:1042C4006B4800F0EFF80A216A48FFF7A0FF0128C5
:1042D400F9D10A226749684C200000F0DFF90A216D
:1042E4006548FFF7CBFFEEE710B55D4C02212000D7
:1042F40000F0A4F900282CD00221200000F0ABF932
:10430400200000F08BF95D495D4A127888545C49BD
:104314000978491C5A4A11705049C988002918D093
:104324004E49896808704D488068401C4B49886034
:104334004A48C088401E4949C8804848C088002867
:1043440007D101204549087100220221200000F014
:1043540053F910BD1CED00E080B51C2069460870BF
:10436400012069468870002069464870684600F05C
:10437400C3F901BD10B586B00400FFF71CFFFFF7B9
:1043840030FFFFF7E9FF01218020800200F03DFAB1
:104394000121C020C00200F028FA03220621902047
:1043A400C00500F0B1FA04220721364800F0ACFA47
:1043B4000194302001A98880002001A9C880002030
:1043C40001A90881002001A98881182001A9488138
:1043D40001A9234800F0C8F801220221204800F076
:1043E4000BF901211E4800F0F4F88020694608808A
:1043F40003206946887018206946C87069462148B8
:1044040000F022FA40206946088004206946C870FA
:1044140069469020C00500F017FA06B010BD0000F0
:1044240000E400E014E000E080B50100C9B289B204
:104434000B4800F0EFF80121094800F0F2F80028D9
:10444400F9D001BD18E000E010E000E08851000060
:10445400E4530000E8530000CC530000D85300009C
:1044640000440040044D000068530000144D000057
:10447400744C0000A052000004530000A05100003E
:10448400EC5300000004004838B505000C0003E0BC
:104494002878FFF7C9FF6D1C2000441E80B2002855
:1044A400F6D131BD10B5040003E02078FFF7BCFF5E
:1044B400641C20780028F8D110BD0022030A8B4226
:1044C4000BD203098B4219D243088B422ED2411AD4
:1044D40000D20146524110467047FF2209023FD0E4
:1044E40012068B4205D3121209028B4201D3121217
:1044F400090203098B4219D300E0090AC3098B425C
:1045040001D3CB01C01A524183098B4201D38B01E1
:10451400C01A524143098B4201D34B01C01A524184
:1045240003098B4201D30B01C01A5241C3088B42C9
:1045340001D3CB00C01A524183088B4201D38B00B4
:10454400C01A524143088B4201D34B00C01A524156
:10455400884200D3401A5241CFD2014610467047D8
:1045640008B500F001FA08BDF0B585B004000F00ED
:1045740000250026002000262600E569CF2085437B
:104584002800B988FD880D4339890D430543E56149
:10459400A5691F208543B989788908432843050004
:1045A400A561684600F0E2F81148864201D1029EF6
:1045B40000E0039E30003968FFF77FFF05093000F3
:1045C4003968FFF77AFF0007000F2562606205B0C3
:1045D400F0BD00B5C9B2002904D0816901220A43A3
:1045E400826103E08169034A0A40826100BD0000E0
:1045F40000440040FEFF000000B5D2B2002A04D0FF
:10460400026989B20A43026103E0026989B28A43FA
:10461400026100BD89B2C9B2016070474068C0B28E
:10462400704700B502000020906889B20840002855
:1046340001D0012000E00020C0B200BD00B502009E
:104644000020D06889B20840002801D0012000E091
:104654000020C0B200BD89B2416170470CB410B5EE
:1046640084B004000A0006A802900194002000907F
:1046740002AB01A9084878441E3000F083F90021F8
:10468400019A1170002801D40198001B04B001990B
:1046940010BC03B0084700BFC7020000124207D095
:1046A4008B0706D00B78491C0370401C521EF7D8A8
:1046B4007047830706D00B78491C0370401C521EB8
:1046C400F9D1704770B4103A03D378C9103A78C05E
:1046D400FBD2530701D318C918C001D508C908C0B3
:1046E400D20704D30B880380891C801C002A01D5BF
:1046F4000B78037070BC704710B5002181780029D5
:1047040026D017490278921004235A438958FF226D
:1047140003789B079B0F082463439A4091430C0042
:1047240041788901C9B202789207920F08235A434B
:10473400914021430A4A03789B1004246343D150D7
:1047440001210078C006C00E81400648016006E0E1
:1047540001210078C006C00E81400348016010BDED
:1047640000E400E000E100E080E100E000B50021A9
:1047740000212E490A680C211140002906D0042981
:1047840007D0082908D00C2909D00BE0284901607A
:104794000AE02749016007E02649016004E0264950
:1047A400016001E02249016020490A68F0211140BA
:1047B4000909224A515C0268CA4042601B490A68DE
:1047C400E021C9001140090A1C4A515C4268CA40F0
:1047D400826016490A68E02189011140C90A174A12
:1047E400515C4268CA40C26000BD00B5C9B200292C
:1047F40005D01349096808431149086004E01049C9
:10480400096881430E48016000BD00B5C9B20029A2
:1048140005D00C49096808430A49086004E00949BD
:10482400096881430748016000BD0000041002408C
:1048340000127A00006CDC02409C000078510000F9
:10484400141002401C10024070B5002300260024FE
:10485400002500220026CA7813071B0FCA78D20647
:1048640002D51A008B7813430A78120621D0026805
:1048740000241BE0CD78482D17D10125A540056102
:1048840013E00125A5400E882E40AE420DD1A500AF
:104894000F26AE40B24316001A00AA403243CD7828
:1048A400282DE7D10125A5404561641C082CE8D3D7
:1048B40002600A88FF2A26D94268002420E00125E4
:1048C40026000836B5400E882E40AE4217D1A5000A
:1048D4000F26AE40B24316001A00AA403243CD78E8
:1048E400282D04D1012526000836B5404561CD7830
:1048F400482D04D1012526000836B5400561641C05
:10490400082CDCD3426070BD30B500230023D2B242
:104914000B005B075B0F042463439A4013000A00F7
:1049240092B2D20892B2002A0CD1026A0F2449072B
:10493400490F042569438C40A2430262016A0B4378
:1049440003620BE0426A0F244907490F04256943B7
:104954008C40A2434262416A0B43436230BD026809
:10496400531C036011707047704770B5060008004F
:104974001400002B05D01D002178B047641C6D1E67
:10498400FAD170BDF0B589B001900C000292009389
:1049940009E00123029A21000198FFF7E6FF0400D1
:1049A4000298401C029002980078002820D0252804
:1049B400EFD102984678801C0290252E12D0582EF2
:1049C4006DD0632E16D0642E1ED0692E1CD06F2E8F
:1049D40065D0702E6CD0732E74D0752E5FD0782E67
:1049E4005DD0E0E725212000019A90470400DAE732
:1049F40009B0F0BD00980068009908600168001DC6
:104A0400009A1060C9B2EEE7009800680099086047
:104A14000568001D00990860002D04D52D21200093
:104A2400019A9047040064266F2E01D1082106E004
:104A340020203043782801D00A2100E010210B27E0
:104A44002800642E03D1002D01D5424210000491A8
:104A540005007F1E039728000499FFF72EFD3031CF
:104A6400C9B23A2902DB30005138091805A8C01927
:104A74000390017028000499FFF71FFD050001D081
:104A8400002FE6DC039D20000B21CC1BAED0019E41
:104A94002978B0476D1C641EFAD10196A6E70098E8
:104AA4000068009908600568001D00990860BBE76C
:104AB40000980068009908600568001D0099086066
:104AC4007826B1E700980068009908600668001D20
:104AD40000990860300000F00CF805002000002D5B
:104AE40084D0019C3178A047761C6D1EFAD10194C4
:104AF4007CE7010000E0491C0A78002AFBD1081A6F
:104B04007047FEE780B52C480068012101432A481C
:104B140001602A4800682A49014028480160264863
:104B24000068284901402448016023480068264958
:104B34000140214801609F2000042449086000F0DE
:104B440001F801BD80B500F001F801BD00B50020F9
:104B54001949096801220A4317490A601649096874
:104B64008907FBD514490968194A0A4012490A60A1
:104B740011490968042291430F4A11608021C90038
:104B84000E4A11601121134A11600C49096803226D
:104B940091430A4A11600949096802220A430749F4
:104BA4000A6004E00548006880088007800FC0B2EE
:104BB4000228F7D100BD000000100240041002409A
:104BC4000000FFF0FFFFF6FFFFFFFBFF08100240AD
:104BD400FFFFEFFF0020024070B401000122002318
:104BE40013E00C68091D144202D04D466D1E641971
:104BF4002360241D001F0428FAD22500860701D54E
:104C04002380AD1C104000D02B700868091D0028BB
:104C1400E7D1080070BC704730B401210268001D60
:104C2400002A0FD00368C318446808300C4202D02D
:104C34004D466D1E64191D6825601B1D241D121F21
:104C4400ECD0F8E730BC704710B507497944183107
:104C5400064C7C44163404E0081D0A688918884709
:104C64000100A142F8D110BD2C0000004C0000004E
:104C7400506C6561736520696E707574206461742D
:104C840061202C656E64207769746820275C6E2728
:104C9400200D0A0045FFFFFF50020000A051000054
:104CA4000000000075FFFFFF14000000DC0400009A
:104CB400785100000000000000F00BF8002801D03B
:104CC400FFF7C2FF002000BF00BFFFF7E6FA00F0C5
:104CD40002F80120704780B500F002F801BDFEE73C
:104CE4000746384600F002F8FBE7FEE780B500BF50
:104CF40000BF024A11001820ABBEFBE726000200E9
:104D0400737072696E7466206F6B0D0A0000000088
:104D14005561727453656E6441736369690D0A0069
:104D24000148804701480047094B0000354D000009
:104D340000BF00BF00BF00BFFFF7BEFFFEE7FEE7F6
:104D4400FEE7FEE7FEE7FEE7FEE7FEE7FEE7FEE737
:104D5400FEE7FEE7FEE7FEE7FEE7FEE7FEE7FEE727
:0E4D6400FEE7FEE7FEE7FEE7FEE7FEE7FEE7FE
:105178000000000000000000000000000000000027
:105188000000000000000000010203040102030403
:0851980006070809006CDC02A7
:0400000500004D3575
:00000001FF
