:020000040800F2
:1000000068020020590100087F01000881010008F2
:100010008301000885010008870100080000000036
:10002000000000000000000000000000890100083E
:100030008B010008000000008D0100089D040008ED
:1000400091010008910100080000000091010008E2
:100050009101000891010008910100089101000838
:1000600000000000910100089101000891010008C2
:10007000910100089101000809050008910100089C
:10008000910100080000000000000000910100083C
:100090000000000091010008910100089101000892
:1000A00000000000000000009101000800000000B6
:1000B0009101000800F002F800F03EF80CA030C8F2
:1000C000083824182D18A246671EAB4654465D46D4
:1000D000AC4201D100F030F87E460F3E0FCCB64660
:1000E0000126334200D0FB1AA246AB4633431847E1
:1000F000F806000018070000103A02D378C878C14B
:10010000FAD8520701D330C830C101D504680C6059
:10011000704700000023002400250026103A01D378
:1001200078C1FBD8520700D330C100D50B607047AF
:100130001FB51FBD10B510BD00F04DF81146FFF7FB
:10014000F7FF00F041FB00F065F803B4FFF7F2FFA2
:1001500003BC00F06BF80000114880F308881148D8
:100160000168090E104A914205D1104810490160FA
:100170001048114901601148804711480047FEE7C7
:10018000FEE7FEE7FEE7FEE7FEE7FEE7FEE7FEE747
:10019000FEE700000B480C490A4A0C4B7047000070
:1001A00068020020040000001F0000001810024038
:1001B000010000000000014000000000BD04000834
:1001C000B5000008680000206802002068000020D8
:1001D000704770477047754600F024F8AE4605003A
:1001E00069465346C008C000854618B020B5FFF7E1
:1001F000D1FF60BC00274908B6460026C0C5C0C56F
:10020000C0C5C0C5C0C5C0C5C0C5C0C5403D49000A
:100210008D46704710B50446C046C0462046FFF7DD
:1002200094FF10BD004870470400002001491820C9
:10023000ABBEFEE7260002007047FCB50246002573
:10024000002601960020002300240096CE78350772
:100250002D0FCE7810273E40002E01D08E783543EA
:100260000E78002E27D01468002021E00126864059
:1002700033460E881E400196019E9E4217D1830090
:100280000F269E4000962746009EB7433C462E46CA
:100290009E403443CE78282E03D1012686405661F5
:1002A00005E0CE78482E02D1012686401661401C1A
:1002B0000828DBD314600E88FF2E2CDD5468002044
:1002C00026E0064608360127B7403B460E881E400A
:1002D0000196019E9E421AD183000F269E400096F1
:1002E0002746009EB7433C462E469E403443CE7878
:1002F000282E04D1064608360127B7405761CE782C
:10030000482E04D1064608360127B7401761401C25
:100310000828D6D35460FCBDF0B5002300244D0757
:10032000EE0E1546B5402B46CD10002D0BD1056ABB
:100330004E07F70E0F26BE40B5430562056A1D4302
:100340002C4604620AE0456A4E07F70E0F26BE40AF
:10035000B5434562456A1D432C464462F0BD00002A
:1003600000218278002A27D0184A03231B02D218C2
:1003700003789B109B00D15802789207D30EFF227E
:100380009A400B469343194642789207120E03781F
:100390009B07DB0E9A4011430C4A03231B02D21821
:1003A00003789B109B00D1500278D306DB0E01220C
:1003B0009A40064B1A6007E00278D306DB0E012252
:1003C0009A40024B80331A607047000000E100E061
:1003D00010B50121014800F0B7F810BD002C014014
:1003E000002905D0054A52690243044B5A6104E0D2
:1003F000024A52698243014B5A6170470010024021
:10040000002905D0054A92690243044B9A6104E031
:10041000024A92698243014B9A6170470010024080
:1004200010B500F001F810BD00201A49096801223A
:100430001143184A116000BF164909680222114091
:100440000029F9D013490968D2049143114A116077
:1004500011460968042291430E4A1160111551603A
:1004600011210D4A11600B49496889088900094A20
:1004700051601146496802221143064A516005E065
:10048000044949688905080E8007800F0228F7D1C2
:10049000704700000010024000200240064801683A
:1004A0000068401C044A1060FF20F530814202D9E8
:1004B00000201146086070470000002010B5104869
:1004C0000068012108430E490860084640680D494C
:1004D00008400B4948600846006809210904884320
:1004E00007490860084600680121890488430449D7
:1004F00008609F2000048860FFF792FF10BD000095
:10050000001002400000FFF010B50221044800F086
:1005100036F8002803D00221014800F011F810BD80
:10052000002C0140002904D0026880231A43026095
:1005300003E00268014B1A40026070477FFF000031
:10054000CA4392B202617047002904D002680123B5
:100550001A43026003E00268014B1A4002607047D0
:10056000FEFF0000002905D0426C0123DB031A4383
:10057000426403E0426C5204520C4264704730B54E
:10058000024600200023002415690D40ABB2D56857
:100590000D40ACB2002B03D0002C01D0012000E0B4
:1005A000002030BD10B5002A03D0C3680B43C360E0
:1005B00004E0C368CC43A4B22340C36010BD000074
:1005C00070B5002400220023056A1C4E35400562E8
:1005D000056AAAB24568ABB28569ACB2174D6F3DEA
:1005E0002C40B51E2C400D882C43751E2A400D89C9
:1005F0002A434D882A43124DA84205D0114DA842E6
:1006000002D0114DA84212D10C4DED1F2A404D8948
:100610002A430A4DED1E2A408D882A43074DFF3D8F
:100620002B400A4D2B408D892B43CD892B434360B2
:100630008461CD884563026270BD0000FEFF00004A
:10064000002C01400044014000480140FFFD000033
:100650000A460021836999B2034B19400B461343A4
:100660001946816170470000F7FF0000002203680F
:100670009AB2114B984206D001239B07984202D0B0
:100680000E4B984204D10E4B1A408B8813439AB2FA
:1006900002608B68C3620B688362074B984205D087
:1006A000084B984202D0084B984201D10B7C03635F
:1006B0000123436170470000002C0140000400400A
:1006C0008FFF000000440140004801400349816061
:1006D00000210160C160416001747047FFFF0000AC
:1006E00008B501218804FFF77BFE07220E210E4882
:1006F000FFF712FE02220D210B48FFF70DFE01212C
:10070000890368460180032181701821C170694600
:100710000548FFF792FD01214903684601806946BB
:100720000148FFF78AFD08BD0004004808B50E2106
:10073000684601700021417001218170FFF710FEB1
:1007400008BD000070B58AB004460D46164601216A
:10075000C802FFF755FE05A8FFF7B8FF07950594F7
:10076000002008900690002108A8017105A91548ED
:10077000FFF77CFF6021684681800121C180042150
:100780000181468100218181C181FF2101310182E6
:100790000021418201A90B48FFF712FF08210948F7
:1007A000FFF756FF01210748FFF7BCFE0122022197
:1007B0000448FFF7F7FE01210248FFF7D3FE0AB015
:1007C00070BD0000002C0140FFF78AFFFF22F532C8
:1007D00004492F20FFF7B6FFFFF7A8FFFFF7F8FD4A
:1007E00000BFFEE7E7030000080800080000002043
:1007F00004000000F80000080C08000804000020B5
:0C08000064020000140100080000000069
:04000005080000B53A
:00000001FF
