:020000040800F2
:1000000018040020990E00081F090008670C00085A
:10001000430E00084F0E0008B50E00080000000057
:10002000000000000000000000000000B70E000803
:10003000B90E000800000000BB0E00088B0100088C
:10004000BD0E0008BF0E000800000000C10E000831
:10005000C30E0008C50E0008C70E0008C90E000830
:1000600000000000CB0E0008CD0E0008CF0E0008E7
:10007000D10E0008D30E0008D50E0008D70E0008D8
:10008000D90E00080000000000000000DB0E000890
:1000900000000000DD0E0008DF0E0008E10E000881
:1000A0000000000000000000E30E00080000000057
:1000B00091030008F0B503000C005BB2002B21D5C2
:1000C000AF4A5BB21807000F083885080420454383
:1000D000AB485BB21907090F083989080426714338
:1000E0004058FF219E07B60F08277E43B140884342
:1000F000A101C9B29B079B0F0824634399400143A8
:1001000051511AE09F485BB299080422514340586C
:10011000FF219A07920F08256A4391408843A10165
:10012000C9B29A07920F082462439140014395484F
:100130005BB29A0804235A438150F0BD80B5411E3A
:1001400080225204914201D301200EE0401E8E49CC
:10015000086003210020C043FFF7ACFF00208B495B
:1001600008600720BC490860002002BD80B5BB487C
:100170000068FA21890000F04BFAFFF7DFFF002149
:100180000020C043FFF796FF01BD00B5B4480068EA
:100190000100491CB24A1160FF21F631884202D3A6
:1001A0000020AF490860AF480068002804D0AD487F
:1001B0000068401EAB49086000BD0120AA490870D4
:1001C0000420A94948700120A74988700020A64949
:1001D000C8700020A44908710020A349886000204D
:1001E000A149C88070470120D24908700420D14934
:1001F00048700020CF4988700020CE49C870002088
:10020000CC4908710020CB4988600020C949C880CA
:10021000704780B5C74AD278002A24D10122C54B45
:10022000DA700022C34B1A71C24AD180C14988607A
:10023000C0480078002809D0BE480078012805D1C0
:1002400001220221BC4800F087FAFFE7B948807814
:10025000012813D1B74800790028FBD00020B54908
:10026000C87001200BE0B3480079002804D00020BA
:10027000B049C870012002E0002000E0002002BD6B
:1002800080B5794AD278002A26D10122764BDA70DD
:100290000022754B1A71744A90607348C18072488D
:1002A0000078002818D070480078012814D16E48D2
:1002B000C088401E6C49C8806B488068411C6A4AEF
:1002C0009160017889B29C4800F054FA0122012122
:1002D000994800F041FAFFE763488078012808D187
:1002E000614800790028FBD000205F49C8700120D8
:1002F00002BD5D4800790028F6D10020F8E700B57E
:100300000100481E0029FBD100BD38B50024FFF7CD
:100310002DFF00F052F9E120400200F0B5F8B0499D
:10032000B04800F04BFA010089B2AE4800F00CF979
:10033000AD4800F00EF9AD4800F00BF90121AC48D2
:1003400000F0BFFA0121AA4800F0B8FAA948FFF767
:10035000D6FF2000C0B200F0F1F8641C0021A648CE
:10036000FFF757FF0128F1D10022A349A34D280030
:1003700000F0D6FA0021A148FFF782FFE6E700006F
:100380001CED00E000E400E014E000E018E000E014
:1003900010B5694C0221200000F000FA00282CD092
:1003A0000221200000F007FA200000F0E7F994494C
:1003B000944A1278885493490978491C914A1170DB
:1003C0005C49C988002918D05A4989680870594879
:1003D0008068401C574988605648C088401E55496F
:1003E000C8805448C088002807D1012051490871AD
:1003F00000220221200000F0AFF90121200000F0CE
:10040000CDF9002827D00121200000F0D4F91648AA
:10041000C088002811D014488068017889B2200073
:1004200000F0A8F910488068401C0F4988600E4809
:10043000C088401E0C49C8800DE000220121200028
:1004400000F08AF90121200000F09BF90028F9D082
:1004500001200549087110BD10E000E010000020E7
:100460005C060020600600204406002080B51C20A9
:100470006946087001206946887000206946487006
:10048000684600F07BFA01BD10B586B00400FFF7A6
:1004900094FEFFF7A8FEFFF7E9FF0121802080020C
:1004A00000F0F5FA0121C020C00200F0E0FA0322BA
:1004B00006219020C00500F007FA042207214C48CD
:1004C00000F002FA0194302001A98880002001A9DF
:1004D000C880002001A90881002001A98881182076
:1004E00001A9488101A9144800F0EEF80122022177
:1004F000114800F031F901210F4800F01AF980206D
:100500006946088003206946887018206946C870CB
:100510006946374800F072F9402069460880042097
:100520006946C87069469020C00500F067F906B0BA
:1005300010BD0000500600200044004001B501211C
:100540006846FFF79DFE01BD80B589B2FFF798FEB2
:1005500001BD10B5040003E02078FFF7EFFF641C35
:1005600020780028F8D110BD38B505000C00902087
:10057000C005854205D12100C9B28020800200F06B
:1005800076FA1B48854205D12100C9B28020C002FD
:1005900000F06DFA1C48854205D12100C9B28020C7
:1005A000000300F064FA1948854205D12100C9B260
:1005B0008020400300F05BFA31BD80B501210C487A
:1005C000FFF7D2FF01206946088003206946887042
:1005D00010206946C8706946054800F00FF901BD52
:1005E000780E0008E0050020880E0008D40D0008F1
:1005F0000004004840420F00180500207C05002040
:10060000180400206406002000080048000C004880
:100610000022030A8B420BD203098B4219D24308F2
:100620008B422ED2411A00D20146524110467047E9
:10063000FF2209023FD012068B4205D31212090293
:100640008B4201D31212090203098B4219D300E035
:10065000090AC3098B4201D3CB01C01A5241830955
:100660008B4201D38B01C01A524143098B4201D303
:100670004B01C01A524103098B4201D30B01C01A2E
:100680005241C3088B4201D3CB00C01A52418308A8
:100690008B4201D38B00C01A524143088B4201D3D5
:1006A0004B00C01A5241884200D3401A5241CFD267
:1006B00001461046704708B500F008FA08BD026808
:1006C000531C036011707047F0B585B004000F0033
:1006D00000250026002000262600E569CF2085435E
:1006E0002800B988FD880D4339890D430543E5612C
:1006F000A5691F208543B9897889084328430500E7
:10070000A561684600F074F91148864201D1029E45
:1007100000E0039E30003968FFF77AFF05093000DA
:100720003968FFF775FF0007000F2562606205B0AA
:10073000F0BD00B5C9B2002904D0816901220A4385
:10074000826103E08169034A0A40826100BD0000C2
:1007500000440040FEFF000000B5D2B2002A04D0E1
:10076000026989B20A43026103E0026989B28A43DD
:10077000026100BD89B2C9B2016070474068C0B271
:10078000704700B502000020906889B20840002838
:1007900001D0012000E00020C0B200BD00B5020081
:1007A0000020D06889B20840002801D0012000E074
:1007B0000020C0B200BD89B2416170470CB410B5D1
:1007C00084B004000A0006A8029001940020009062
:1007D00002AB01A9084878441E3000F085F90021D9
:1007E000019A1170002801D40198001B04B00199EE
:1007F00010BC03B0084700BFC7FEFFFF70B5002361
:1008000000260024002500220026CA7813071B0FAB
:10081000CA78D20602D51A008B7813430A781206DA
:1008200021D0026800241BE0CD78482D17D1012586
:10083000A540056113E00125A5400E882E40AE427B
:100840000DD1A5000F26AE40B24316001A00AA40F3
:100850003243CD78282DE7D10125A5404561641CA0
:10086000082CE8D302600A88FF2A26D942680024AF
:1008700020E0012526000836B5400E882E40AE4205
:1008800017D1A5000F26AE40B24316001A00AA40A9
:100890003243CD78282D04D1012526000836B540F5
:1008A0004561CD78482D04D1012526000836B54094
:1008B0000561641C082CDCD3426070BD89B2016103
:1008C000704789B24161704730B500230023D2B22E
:1008D0000B005B075B0F042463439A4013000A007C
:1008E00092B2D20892B2002A0CD1026A0F244907B0
:1008F000490F042569438C40A2430262016A0B43FD
:1009000003620BE0426A0F244907490F042569433B
:100910008C40A2434262416A0B43436230BDFEE712
:10092000124207D08B0706D00B78491C0370401C7D
:10093000521EF7D87047830706D00B78491C037006
:10094000401C521EF9D1704770B4103A03D378C9D5
:10095000103A78C0FBD2530701D318C918C001D58B
:1009600008C908C0D20704D30B880380891C801CE7
:10097000002A01D50B78037070BC704710B50021B8
:100980008178002926D017490278921004235A430F
:100990008958FF2203789B079B0F082463439A40E2
:1009A00091430C0041788901C9B202789207920FF5
:1009B00008235A43914021430A4A03789B10042498
:1009C0006343D15001210078C006C00E8140064823
:1009D000016006E001210078C006C00E8140034896
:1009E000016010BD00E400E000E100E080E100E013
:1009F00000B5002100212E490A680C211140002970
:100A000006D0042907D0082908D00C2909D00BE00A
:100A1000284901600AE02749016007E02649016092
:100A200004E02649016001E02249016020490A688A
:100A3000F02111400909224A515C0268CA40426013
:100A40001B490A68E021C9001140090A1C4A515C8F
:100A50004268CA40826016490A68E0218901114053
:100A6000C90A174A515C4268CA40C26000BD00B55D
:100A7000C9B2002905D01349096808431149086023
:100A800004E01049096881430E48016000BD00B5CB
:100A9000C9B2002905D00C49096808430A49086011
:100AA00004E00949096881430748016000BD00006E
:100AB0000410024000127A00006CDC02409C00002E
:100AC00000000020141002401C100240704770B556
:100AD000060008001400002B05D01D002178B04747
:100AE000641C6D1EFAD170BDF0B589B001900C0088
:100AF0000292009309E00123029A21000198FFF776
:100B0000E6FF04000298401C02900298007800283A
:100B100020D02528EFD102984678801C0290252EFF
:100B200012D0582E6DD0632E16D0642E1ED0692E92
:100B30001CD06F2E65D0702E6CD0732E74D0752E95
:100B40005FD0782E5DD0E0E725212000019A904704
:100B50000400DAE709B0F0BD009800680099086069
:100B60000168001D009A1060C9B2EEE700980068A5
:100B7000009908600568001D00990860002D04D5E3
:100B80002D212000019A9047040064266F2E01D188
:100B9000082106E020203043782801D00A2100E017
:100BA00010210B272800642E03D1002D01D54242CD
:100BB0001000049105007F1E039728000499FFF799
:100BC00027FD3031C9B23A2902DB3000513809180B
:100BD00005A8C0190390017028000499FFF718FDBB
:100BE000050001D0002FE6DC039D20000B21CC1B6B
:100BF000AED0019E2978B0476D1C641EFAD10196D3
:100C0000A6E700980068009908600568001D009933
:100C10000860BBE700980068009908600568001D3F
:100C2000009908607826B1E700980068009908608C
:100C30000668001D00990860300000F00CF80500FF
:100C40002000002D84D0019C3178A047761C6D1EB9
:100C5000FAD101947CE7010000E0491C0A78002ADF
:100C6000FBD1081A7047FEE780B52C4800680121C7
:100C700001432A4801602A4800682A49014028485F
:100C80000160264800682849014024480160234843
:100C9000006826490140214801609F200004244942
:100CA000086000F001F801BD80B500F001F801BD59
:100CB00000B500201949096801220A4317490A6052
:100CC000164909688907FBD514490968194A0A4079
:100CD00012490A6011490968042291430F4A1160C0
:100CE0008021C9000E4A11601121134A11600C497C
:100CF0000968032291430A4A1160094909680222DE
:100D00000A4307490A6004E0054800688008800734
:100D1000800FC0B20228F7D100BD000000100240D1
:100D2000041002400000FFF0FFFFF6FFFFFFFBFF93
:100D300008100240FFFFEFFF0020024070B40100E6
:100D40000122002313E00C68091D144202D04D4615
:100D50006D1E64192360241D001F0428FAD225008B
:100D6000860701D52380AD1C104000D02B70086889
:100D7000091D0028E7D1080070BC704730B401217C
:100D80000268001D002A0FD00368C31844680830A9
:100D90000C4202D04D466D1E64191D6825601B1D56
:100DA000241D121FECD0F8E730BC704710B507497E
:100DB00079441831064C7C44163404E0081D0A6856
:100DC000891888470100A142F8D110BD2C0000000D
:100DD0004C000000506C6561736520696E7075741D
:100DE0002064617461202C656E64207769746820CA
:100DF000275C6E27200D0A0045FFFFFF5002000010
:100E0000180400200000000075FFFFFF1400000020
:100E100054000000000000200000000000F00BF86B
:100E2000002801D0FFF7C2FF002000BF00BFFFF77E
:100E30006CFA00F002F80120704780B500F002F86B
:100E400001BDFEE70746384600F002F8FBE7FEE783
:100E500080B500BF00BF024A11001820ABBEFBE7FF
:100E60002600020000000000010203040102030446
:100E700006070809006CDC02737072696E746620E4
:100E80006F6B0D0A000000005561727453656E644B
:100E900041736369690D0A000148804701480047B2
:100EA000690C0008A90E000800BF00BF00BF00BF0A
:100EB000FFF7B4FFFEE7FEE7FEE7FEE7FEE7FEE72B
:100EC000FEE7FEE7FEE7FEE7FEE7FEE7FEE7FEE7FA
:100ED000FEE7FEE7FEE7FEE7FEE7FEE7FEE7FEE7EA
:040EE000FEE7FEE744
:0400000508000EA938
:00000001FF
