:020000040800F2
:1000000028040020D10D0008F30900088F0B000818
:100010008F0D00089B0D0008ED0D0008000000008A
:10002000000000000000000000000000EF0D0008CC
:10003000F10D000800000000F30D00088B0100081E
:10004000F50D0008F70D000800000000F90D00088C
:10005000FB0D0008FD0D0008FF0D0008010E000853
:1000600000000000030E0008050E0008070E00083F
:10007000090E00080B0E00080D0E00080F0E0008F8
:10008000110E00080000000000000000130E000820
:1000900000000000150E0008170E0008190E0008D9
:1000A00000000000000000001B0E0008000000001F
:1000B0001D0E0008F0B503000C005BB2002B21D52B
:1000C000A04A5BB21807000F083885080420454392
:1000D0009C485BB21907090F083989080426714347
:1000E0004058FF219E07B60F08277E43B140884342
:1000F000A101C9B29B079B0F0824634399400143A8
:1001000051511AE0AA485BB2990804225143405861
:10011000FF219A07920F08256A4391408843A10165
:10012000C9B29A07920F0824624391400143A04844
:100130005BB29A0804235A438150F0BD80B5411E3A
:1001400080225204914201D301200EE0401E9949C1
:10015000086003210020C043FFF7ACFF0020964950
:100160000860072095490860002002BD80B59448CA
:100170000068FA21890000F0A7F9FFF7DFFF0021EE
:100180000020C043FFF796FF01BD00B58D48006811
:100190000100491C8B4A1160FF21F631884202D3CD
:1001A000002088490860B0480068002804D0AE48A4
:1001B0000068401EAC49086000BD00B5AA4908604F
:1001C000A94800680028FBD100BD00B58BB0012113
:1001D000012000F014FAA54800F040FAA44800906D
:1001E000A448019010200290012003900020049068
:1001F0000020059000200690002007900020089025
:10020000C0208001099000200A906946974800F0BC
:1002100065FA0BB000BD00B58BB00121012000F0E4
:10022000EEF9954800F01AFA94480090944801902D
:1002300000200290012003900020049000200590EF
:10024000002006900020079000200890C020800128
:10025000099000200A906946874800F03FFA0BB0E9
:1002600000BD89B241607047C160704700B5C9B236
:10027000012904D1016880220A43026003E0016879
:1002800080229143016000BD70B504000E0015008E
:1002900001220221200000F04FFA0021200000F08E
:1002A0003DFA31002000FFF7DFFF290089B220006E
:1002B000FFF7D7FF0121200000F030FA70BD38B5FC
:1002C00004000D0001216948FFF7D0FF2A0021003A
:1002D0006648FFF7D9FF8020800100F039FA002836
:1002E000F9D08020800100F041FA00215F4800F041
:1002F00015FA31BDF8B507000E00150000240121E4
:100300005D48FFF7B3FF320039005B48FFF7BCFFE1
:100310008020800200F01CFA002807D10120FFF79E
:100320004CFF641CA542F3D20F2400E0012480207E
:10033000800200F01BFA00214F4800F0EFF9200086
:10034000F2BD00001CED00E010B5FFF70FFF0A2022
:10035000FFF733FFFFF739FFFFF75DFFE1204002B2
:1003600000F032F801220221414800F061FA4549CB
:10037000454800F06BFA010089B2434800F094F858
:10038000424800F096F8424800F093F80A21002213
:10039000404C200000F07AFA64220A213D48FFF721
:1003A000A9FF0128F2D10A213A4800F07DF8EDE7D3
:1003B00000E400E014E000E018E000E010E000E0FD
:1003C00020000020A804002010B586B00400012100
:1003D0008020800200F023F90121C020C00200F03B
:1003E0000EF9032206219020C00500F0D7FA04225E
:1003F0000721294800F0D2FA0194302001A9888011
:10040000002001A9C880002001A90881002001A9BD
:100410008881182001A9488101A9154800F0B2F986
:1004200001220221124800F0F5F90121104800F0E4
:10043000DEF980206946088003206946887018200C
:100440006946C8706946144800F048FA4020694679
:10045000088004206946C87069469020C00500F0F5
:100460003DFA06B010BD0000AC040020440002407C
:1004700000440040100000205800024004440040A6
:100480008C040020B00D000828040020C00D0008D6
:10049000FC0C00089C0400200004004801B5012168
:1004A0006846FFF70CFF01BD80B589B2FFF707FF73
:1004B00001BD10B5040003E02078FFF7EFFF641CD6
:1004C00020780028F8D110BD0022030A8B420BD2FD
:1004D00003098B4219D243088B422ED2411A00D213
:1004E0000146524110467047FF2209023FD01206D2
:1004F0008B4205D3121209028B4201D31212090258
:1005000003098B4219D300E0090AC3098B4201D3C6
:10051000CB01C01A524183098B4201D38B01C01A0F
:10052000524143098B4201D34B01C01A5241030986
:100530008B4201D30B01C01A5241C3088B4201D335
:10054000CB00C01A524183088B4201D38B00C01AE2
:10055000524143088B4201D34B00C01A524188429A
:1005600000D3401A5241CFD201461046704708B519
:1005700000F040FA08BD0268531C03601170704718
:1005800000B5002100212E490A680C2111400029E4
:1005900006D0042907D0082908D00C2909D00BE07F
:1005A000284901600AE02749016007E02649016007
:1005B00004E02649016001E02249016020490A68FF
:1005C000F02111400909224A515C0268CA40426088
:1005D0001B490A68E021C9001140090A1C4A515C04
:1005E0004268CA40826016490A68E02189011140C8
:1005F000C90A174A515C4268CA40C26000BD00B5D2
:10060000C9B2002905D01349096808431149086097
:1006100004E01049096881430E48016000BD00B53F
:10062000C9B2002905D00C49096808430A49086085
:1006300004E00949096881430748016000BD0000E2
:100640000410024000127A00006CDC02409C0000A2
:1006500000000020141002401C10024000B5016888
:1006600001229143016000210160002141600021CD
:1006700081600021C1603F49401A08D014380DD074
:10068000143812D0143818D014381ED025E03A4847
:1006900000680F210143384801601EE036480068B9
:1006A000F02101433448016017E033480068F0212D
:1006B00009010143304801600FE02F480068F02134
:1006C000090201432C48016007E02B480068F02133
:1006D0000903014328480160FFE700BD30B400234F
:1006E00003681A00254B13401A008B680C6A1C43E0
:1006F0000B6923434C691C438B692343CC691C431E
:100700004D6A25438B6A2B4313430360CA684260DA
:100710000A6882604968C16030BC704700B5C9B2E0
:10072000002904D0016801220A43026003E0016845
:1007300001229143016000BD00B5D2B2002A03D06E
:1007400002681143016002E002688A43026000BD52
:1007500000B5010000200020094800680140002980
:1007600001D0012000E00020C0B200BD02490860B5
:100770007047000008000240040002400F80FFFFA5
:1007800000000240F0B585B004000F0000250026EF
:10079000002000262600E569CF2085432800B9887F
:1007A000FD880D4339890D430543E561A5691F2087
:1007B0008543B9897889084328430500A5616846BF
:1007C000FFF7DEFE1148864201D1029E00E0039E43
:1007D00030003968FFF778FE050930003968FFF707
:1007E00073FE0007000F2562606205B0F0BD00B522
:1007F000C9B2002904D0816901220A43826103E061
:100800008169034A0A40826100BD00000044004043
:10081000FEFF000000B5D2B2002A04D0026989B2FE
:100820000A43026103E0026989B28A43026100BDA2
:1008300000B5D2B2002A04D0826989B20A4382612B
:1008400003E0826989B28A43826100BD0CB410B5AD
:1008500084B004000A0006A80290019400200090D1
:1008600002AB01A9084878441E3000F0D1F80021FD
:10087000019A1170002801D40198001B04B001995D
:1008800010BC03B0084700BFEFFCFFFF1206130ABD
:100890001A43130C1A4300BF094205D0830705D041
:1008A0000270401C491EF9D170470000130030B49B
:1008B00014001500103902D310393CC0FCD249078E
:1008C00000D30CC000D504C0890002D30280801C74
:1008D000002900D5027030BC7047000070B50023BD
:1008E00000260024002500220026CA7813071B0FCB
:1008F000CA78D20602D51A008B7813430A781206FA
:1009000021D0026800241BE0CD78482D17D10125A5
:10091000A540056113E00125A5400E882E40AE429A
:100920000DD1A5000F26AE40B24316001A00AA4012
:100930003243CD78282DE7D10125A5404561641CBF
:10094000082CE8D302600A88FF2A26D942680024CE
:1009500020E0012526000836B5400E882E40AE4224
:1009600017D1A5000F26AE40B24316001A00AA40C8
:100970003243CD78282D04D1012526000836B54014
:100980004561CD78482D04D1012526000836B540B3
:100990000561641C082CDCD3426070BD30B50023B7
:1009A0000023D2B20B005B075B0F042463439A4021
:1009B00013000A0092B2D20892B2002A0CD1026A45
:1009C0000F244907490F042569438C40A243026262
:1009D000016A0B4303620BE0426A0F244907490F87
:1009E000042569438C40A2434262416A0B4343623F
:1009F00030BDFEE7704770B5060008001400002BFC
:100A000005D01D002178B047641C6D1EFAD170BD61
:100A1000F0B589B001900C000292009309E0012327
:100A2000029A21000198FFF7E6FF04000298401C9B
:100A3000029002980078002820D02528EFD1029853
:100A40004678801C0290252E12D0582E6DD0632E31
:100A500016D0642E1ED0692E1CD06F2E65D0702E3D
:100A60006CD0732E74D0752E5FD0782E5DD0E0E7F9
:100A700025212000019A90470400DAE709B0F0BD73
:100A800000980068009908600168001D009A1060D5
:100A9000C9B2EEE700980068009908600568001D7B
:100AA00000990860002D04D52D212000019A90475F
:100AB000040064266F2E01D1082106E02020304377
:100AC000782801D00A2100E010210B272800642E8D
:100AD00003D1002D01D542421000049105007F1E74
:100AE000039728000499FFF7EFFC3031C9B23A2987
:100AF00002DB30005138091805A8C01903900170B5
:100B000028000499FFF7E0FC050001D0002FE6DC87
:100B1000039D20000B21CC1BAED0019E2978B0474D
:100B20006D1C641EFAD10196A6E700980068009932
:100B300008600568001D00990860BBE70098006820
:100B4000009908600568001D009908607826B1E7E3
:100B500000980068009908600668001D0099086008
:100B6000300000F00CF805002000002D84D0019C1E
:100B70003178A047761C6D1EFAD101947CE7010004
:100B800000E0491C0A78002AFBD1081A7047FEE7EA
:100B900080B52C480068012101432A4801602A4899
:100BA00000682A4901402848016026480068284911
:100BB000014024480160234800682649014021483B
:100BC00001609F2000042449086000F001F801BD85
:100BD00080B500F001F801BD00B500201949096891
:100BE00001220A4317490A60164909688907FBD59B
:100BF00014490968194A0A4012490A6011490968EA
:100C0000042291430F4A11608021C9000E4A1160ED
:100C10001121134A11600C490968032291430A4AC1
:100C200011600949096802220A4307490A6004E081
:100C30000548006880088007800FC0B20228F7D1FD
:100C400000BD000000100240041002400000FFF050
:100C5000FFFFF6FFFFFFFBFF08100240FFFFEFFF63
:100C60000020024070B401000122002313E00C6850
:100C7000091D144202D04D466D1E64192360241DC7
:100C8000001F0428FAD22500860701D52380AD1C59
:100C9000104000D02B700868091D0028E7D108001B
:100CA00070BC704730B401210268001D002A0FD0CB
:100CB0000368C318446808300C4202D04D466D1ECC
:100CC00064191D6825601B1D241D121FECD0F8E758
:100CD00030BC704710B5074979441831064C7C4444
:100CE000163404E0081D0A68891888470100A142EB
:100CF000F8D110BD5000000070000000506C65611C
:100D0000736520696E7075742064617461202C6550
:100D10006E64207769746820275C6E27200D0A00B6
:100D20000000000001020304010203040607080991
:100D300055AABBDD3377221155AABBDD33772211CB
:100D4000006CDC0221FFFFFF880000002804002067
:100D50000000000051FFFFFF24000000C4FFFFFF60
:100D6000000000200000000000F00BF8002801D077
:100D7000FFF7B0FF002000BF00BFFFF7E5FA00F06B
:100D800002F80120704780B500F002F801BDFEE7CF
:100D90000746384600F002F8FBE7FEE780B500BFE3
:100DA00000BF024A11001820ABBEFBE7260002007C
:100DB000737072696E7466206F6B0D0A000000001C
:100DC0005561727453656E6441736369690D0A00FD
:100DD0000148804701480047910B0008E10D0008D9
:100DE00000BF00BF00BF00BFFFF7BEFFFEE7FEE78A
:100DF000FEE7FEE7FEE7FEE7FEE7FEE7FEE7FEE7CB
:100E0000FEE7FEE7FEE7FEE7FEE7FEE7FEE7FEE7BA
:0E0E1000FEE7FEE7FEE7FEE7FEE7FEE7FEE791
:0400000508000DE101
:00000001FF
