:020000040800F2
:10000000F8020020590100087F0100088101000862
:100010008301000885010008870100080000000036
:10002000000000000000000000000000890100083E
:100030008B010008000000008D010008A1070008E6
:1000400091010008910100080000000091010008E2
:100050009101000891010008910100089101000838
:1000600000000000910100089101000891010008C2
:100070009101000891010008910100089101000818
:10008000910100080000000000000000910100083C
:100090000000000091010008910100089101000892
:1000A00000000000000000009101000800000000B6
:1000B0009101000800F002F800F03EF80CA030C8F2
:1000C000083824182D18A246671EAB4654465D46D4
:1000D000AC4201D100F030F87E460F3E0FCCB64660
:1000E0000126334200D0FB1AA246AB4633431847E1
:1000F0009C090000BC090000103A02D378C878C1FE
:10010000FAD8520701D330C830C101D504680C6059
:10011000704700000023002400250026103A01D378
:1001200078C1FBD8520700D330C100D50B607047AF
:100130001FB51FBD10B510BD00F03FF91146FFF708
:10014000F7FF00F039FC00F057F903B4FFF7F2FFB6
:1001500003BC00F05DF90000114880F308881148E5
:100160000168090E104A914205D1104810490160FA
:100170001048114901601148804711480047FEE7C7
:10018000FEE7FEE7FEE7FEE7FEE7FEE7FEE7FEE747
:10019000FEE700000B480C490A4A0C4B7047000070
:1001A000F8020020040000001F00000018100240A8
:1001B000010000000000014000000000D907000815
:1001C000B5000008F8000020F8020020F800002028
:1001D0000FB41CB5084B06AA7B44694600900598ED
:1001E00000F0C1F804460020694600F0CFF8204630
:1001F0001CBC08BC04B01847B10100000022030970
:100200008B422CD3030A8B4211D300239C464EE031
:1002100003460B433CD4002243088B4231D30309ED
:100220008B421CD3030A8B4201D394463FE0C3099F
:100230008B4201D3CB01C01A524183098B4201D3B7
:100240008B01C01A524143098B4201D34B01C01AA2
:10025000524103098B4201D30B01C01A5241C3081A
:100260008B4201D3CB00C01A524183088B4201D389
:100270008B00C01A524143088B4201D34B00C01A75
:100280005241411A00D201465241104670475DE08A
:10029000CA0F00D04942031000D34042534000220D
:1002A0009C4603098B422DD3030A8B4212D3FC22B6
:1002B000890112BA030A8B420CD3890192118B4235
:1002C00008D3890192118B4204D389013AD092114B
:1002D00000E08909C3098B4201D3CB01C01A524106
:1002E00083098B4201D38B01C01A524143098B42CF
:1002F00001D34B01C01A524103098B4201D30B01B8
:10030000C01A5241C3088B4201D3CB00C01A5241DC
:1003100083088B4201D38B00C01A5241D9D24308C3
:100320008B4201D34B00C01A5241411A00D2014600
:10033000634652415B10104601D34042002B00D56A
:100340004942704763465B1000D3404201B500202C
:10035000C046C04602BD70477047704701694A1CDD
:1003600002610878704700B58FB0029100210591B5
:10037000054901937944039111460490684600F0C1
:100380000AF80FB000BD0000E5FFFFFF0A6810701B
:10039000521C0A607047F8B506460024476880681A
:1003A00000903046F56803E00099B847641C304679
:1003B000A8470028F8D12046F8BD754600F024F87B
:1003C000AE46050069465346C008C000854618B0D1
:1003D00020B5FFF7DFFE60BC00274908B6460026BF
:1003E000C0C5C0C5C0C5C0C5C0C5C0C5C0C5C0C5E5
:1003F000403D49008D46704710B50446C046C04692
:100400002046FFF7A2FE10BD004870479400002070
:1004100001491820ABBEFEE726000200704708B570
:10042000102168460180032181700021C170694656
:100430000920C00600F001F808BDFCB50246002501
:10044000002601960020002300240096CE78350770
:100450002D0FCE7810273E40002E01D08E783543E8
:100460000E78002E27D01468002021E00126864057
:1004700033460E881E400196019E9E4217D183008E
:100480000F269E4000962746009EB7433C462E46C8
:100490009E403443CE78282E03D1012686405661F3
:1004A00005E0CE78482E02D1012686401661401C18
:1004B0000828DBD314600E88FF2E2CDD5468002042
:1004C00026E0064608360127B7403B460E881E4008
:1004D0000196019E9E421AD183000F269E400096EF
:1004E0002746009EB7433C462E469E403443CE7876
:1004F000282E04D1064608360127B7405761CE782A
:10050000482E04D1064608360127B7401761401C23
:100510000828D6D35460FCBDF0B5002300244D0755
:10052000EE0E1546B5402B46CD10002D0BD1056AB9
:100530004E07F70E0F26BE40B5430562056A1D4300
:100540002C4604620AE0456A4E07F70E0F26BE40AD
:10055000B5434562456A1D432C464462F0BD000028
:1005600010B57D21C9000E480068FFF747FE04461C
:10057000601E0C49884200D90CE0601E0A4948619F
:100580000321081F00F012F80020074988610720A6
:10059000086100BF0021481E00F008F810BD0000EF
:1005A0000C000020FFFFFF0000E000E010B5002875
:1005B00019DA1A4A03071B0F083B9B089B00D25805
:1005C0008307DC0EFF23A3409A438B071B0E84078F
:1005D000E40EA3401A43114B0407240F083CA4085F
:1005E000A4001A5118E00E4A03231B02D2188308F4
:1005F0009B00D2588307DC0EFF23A3409A438B074E
:100600001B0E8407E40EA3401A43054B0324240267
:100610001B198408A4001A5110BD00001CED00E055
:1006200000E100E0002905D0054A52690243044B6D
:100630005A6104E0024A52698243014B5A61704791
:1006400000100240002905D0054AD2690243044B3C
:10065000DA6104E0024AD2698243014BDA617047F1
:100660000010024010B501214804FFF7DBFF012113
:100670008804FFF7D7FF0121C804FFF7D3FF01214A
:100680000805FFF7CFFF10BD10B500210022204B59
:100690005B680C2423401946002906D0042907D0A2
:1006A000082908D00C290CD108E01A4B03600BE094
:1006B000184B036008E0184B036005E0174B03601C
:1006C00002E0144B036000BF00BF114B5B68F024D5
:1006D000234019460909124B5A5C0368D340436012
:1006E0000B4B5B680724240223401946090A0C4B74
:1006F0005A5C4368D3408360054B5B68E400234049
:100700001946C90A064B5A5C4368D340C36010BD02
:100710000010024000127A00006CDC02409C0000D5
:100720002000002010B500F001F810BD00201A498B
:10073000096801221143184A116000BF164909686F
:10074000022211400029F9D013490968D2049143CB
:10075000114A116011460968042291430E4A116042
:100760001115516011210D4A11600B494968890822
:100770008900094A51601146496802221143064A1C
:10078000516005E0044949688905080E8007800F1B
:100790000228F7D1704700000010024000200240FC
:1007A0000B4801680068401C094A1060FF20F530C2
:1007B000814202D9002011460860064800680028DE
:1007C00004D004480068401E0249086070470000D9
:1007D000040000200800002010B510480068012126
:1007E00008430E490860084640680D4908400B4917
:1007F00048600846006809210904884307490860E1
:1008000008460068012189048843044908609F2044
:1008100000048860FFF786FF10BD00000010024052
:100820000000FFF070470000002904D08269012316
:100830001A43826103E08269014B1A40826170476A
:10084000FEFF00000246002093680B40002B01D001
:10085000012000E000207047F0B587B004460D4647
:10086000002600200690059000272746E669CF2144
:10087000304688430646A888E98808432989084302
:100880000643E661A66976097601A8896989084365
:100890000643A66101A8FFF7F7FE0C48874202D184
:1008A0000398069001E00498069029680698FFF7DF
:1008B000A5FC060929680698FFF7A0FC0007000FB1
:1008C000059026620598606207B0F0BD00440040C4
:1008D00001464868C0B27047CAB20260704710B59E
:1008E000044603E02078641C00F004F82078002817
:1008F000F8D110BD10B5044621460548FFF7ECFFBE
:1009000000BF01210248FFF79DFF0028F9D010BD6C
:100910000044004070B504460D4603E02078641C96
:10092000FFF7E8FF2846691E8DB20028F6D170BD9A
:1009300010B586B0044601214804FFF783FE01216B
:1009400003204004FFF76EFE032206210920C006A3
:10095000FFF7E2FD042207211548FFF7DDFD0194B2
:100960003021684601810021418181810182182165
:10097000C18101A90F48FFF76FFF01210D48FFF763
:1009800053FF802168468182032181751821C1753A
:1009900005A90748FFF751FD4021684681820421DF
:1009A000C17505A90920C006FFF747FD06B010BDB7
:1009B00000040048004400400024FFF7D1FDFFF789
:1009C00051FEFFF72CFD4B20C001FFF7B1FF1CA12A
:1009D0001F48FFF7FDFB86B231461D48FFF79AFF1F
:1009E0001CA0FFF77CFF1FA0FFF779FF26E0022184
:1009F0002548FFF727FF012818D102212248FFF7D9
:100A000011FF2148FFF764FFC6B264212046FFF7BB
:100A1000FFFB0F48465464212046FFF7F9FB0C48C2
:100A2000405C0A2800D10125601CC4B2002D05D00D
:100A300021460748FFF76EFF00240025D7E7000096
:100A4000737072696E7466206F6B0D0A000000008F
:100A5000300000205561727453656E6441736369A0
:100A6000690D0A00506C6561736520696E7075745C
:100A70002064617461202C656E642077697468203D
:100A8000275C6E27200D0A0000440040AC0A0008D5
:100A90000000002030000000F8000008DC0A000818
:100AA00030000020C802000014010008000000000F
:100AB0000000000000000000006CDC0200000000EC
:100AC00000000000010203040607080900000000FE
:0C0AD000010203040102030406070809E8
:04000005080000B53A
:00000001FF
