:020000040800F2
:1000000018040020D10E00082F090008770C000802
:10001000530E00085F0E0008ED0E000800000000FF
:10002000000000000000000000000000EF0E0008CB
:10003000F10E000800000000F30E00088B0100081C
:10004000F50E0008F70E000800000000F90E000889
:10005000FB0E0008FD0E0008FF0E0008010F00084F
:1000600000000000030F0008050F0008070F00083C
:10007000090F00080B0F00080D0F00080F0F0008F4
:10008000110F00080000000000000000130F00081E
:1000900000000000150F0008170F0008190F0008D6
:1000A00000000000000000001B0F0008000000001E
:1000B00099030008F0B503000C005BB2002B21D5BA
:1000C000B04A5BB21807000F083885080420454382
:1000D000AC485BB21907090F083989080426714337
:1000E0004058FF219E07B60F08277E43B140884342
:1000F000A101C9B29B079B0F0824634399400143A8
:1001000051511AE0A0485BB299080422514340586B
:10011000FF219A07920F08256A4391408843A10165
:10012000C9B29A07920F082462439140014396484E
:100130005BB29A0804235A438150F0BD80B5411E3A
:1001400080225204914201D301200EE0401E8F49CB
:10015000086003210020C043FFF7ACFF00208C495A
:1001600008600720BE490860002002BD80B5BD4878
:100170000068FA21890000F053FAFFF7DFFF002141
:100180000020C043FFF796FF01BD00B5814800681D
:100190000100491C7F4A1160FF21F631884202D3D9
:1001A00000207C490860B0480068002804D0AE48B0
:1001B0000068401EAC49086000BD0120AB490870D2
:1001C0000420AA4948700120A84988700020A74946
:1001D000C8700020A54908710020A449886000204B
:1001E000A249C88070470120D34908700420D24931
:1001F00048700020D04988700020CF49C870002086
:10020000CD4908710020CC4988600020CA49C880C7
:10021000704780B5C84AD278002A24D10122C64B43
:10022000DA700022C44B1A71C34AD180C249886077
:10023000C1480078002809D0BF480078012805D1BE
:1002400001220221BD4800F08FFAFFE7BA4880780A
:10025000012813D1B84800790028FBD00020B64906
:10026000C87001200BE0B4480079002804D00020B9
:10027000B149C870012002E0002000E0002002BD6A
:1002800080B57A4AD278002A26D10122774BDA70DB
:100290000022764B1A71754A90607448C180734889
:1002A0000078002818D071480078012814D16F48D0
:1002B000C088401E6D49C8806C488068411C6B4AEC
:1002C0009160017889B29D4800F05CFA0122012119
:1002D0009A4800F049FAFFE764488078012808D17D
:1002E000624800790028FBD000206049C8700120D6
:1002F00002BD5E4800790028F6D10020F8E700B57D
:100300000100481E0029FBD100BD10B5FFF72EFFEC
:1003100000F055F9E120400200F0B8F8B249B348C6
:1003200000F054FA010089B2B04800F00FF9B0486B
:1003300000F011F9AF4800F00EF910219020C0052F
:1003400000F0C7FA10219020C00500F0BFFAAA48BB
:10035000FFF7D5FFA94800F0FEF8A94800F0FBF828
:100360000021A848FFF755FF0128F0D10022A54938
:10037000A54C200000F0DCFA0021A348FFF780FF25
:10038000E5E700001CED00E000E400E014E000E020
:1003900018E000E05C06002010B5684C0221200047
:1003A00000F004FA00282CD00221200000F00BFA03
:1003B000200000F0EBF99549954A12788854944949
:1003C0000978491C924A11705B49C988002918D0E4
:1003D00059498968087058488068401C56498860A7
:1003E0005548C088401E5449C8805348C0880028DA
:1003F00007D101205049087100220221200000F09D
:10040000B3F90121200000F0D1F9002827D0012103
:10041000200000F0D8F91548C088002811D01348F2
:100420008068017889B2200000F0ACF90F4880683C
:10043000401C0E4988600D48C088401E0B49C8808A
:100440000DE000220121200000F08EF901212000A2
:1004500000F09FF90028F9D001200449087110BD6F
:1004600010E000E01000002060060020440600209C
:1004700080B51C20694608700120694688700020FC
:1004800069464870684600F081FA01BD10B586B033
:100490000400FFF792FEFFF7A6FEFFF7E9FF012138
:1004A0008020800200F0FBFA0121C020C00200F091
:1004B000E6FA032206219020C00500F00DFA04227E
:1004C0000721544800F008FA0194302001A98880DF
:1004D000002001A9C880002001A90881002001A9ED
:1004E0008881182001A9488101A9144800F0F4F876
:1004F00001220221114800F037F901210F4800F0D4
:1005000020F98020694608800320694688701820F9
:100510006946C87069463F4800F078F9402069464E
:10052000088004206946C87069469020C00500F024
:100530006DF906B010BD00005006002000440040D8
:1005400001B501216846FFF79BFE01BD80B589B268
:10055000FFF796FE01BD10B5040003E02078FFF719
:10056000EFFF641C20780028F8D110BD38B50500D5
:100570000C009020C005854205D12100C9B2802021
:10058000800200F07CFA2348854205D12100C9B2DF
:100590008020C00200F073FA1F48854205D1210077
:1005A000C9B28020000300F06AFA1C48854205D1D8
:1005B0002100C9B28020400300F061FA31BD80B54E
:1005C00001211448FFF7D2FF10206946088003205C
:1005D0006946887010206946C87069469020C00539
:1005E00000F014F901BD0000A00E0008E005002095
:1005F000B00E0008E40D000840420F00740E000821
:10060000C00E0008180500207C05002018040020FA
:10061000640600200004004800080048000C004860
:100620000022030A8B420BD203098B4219D24308E2
:100630008B422ED2411A00D20146524110467047D9
:10064000FF2209023FD012068B4205D31212090283
:100650008B4201D31212090203098B4219D300E025
:10066000090AC3098B4201D3CB01C01A5241830945
:100670008B4201D38B01C01A524143098B4201D3F3
:100680004B01C01A524103098B4201D30B01C01A1E
:100690005241C3088B4201D3CB00C01A5241830898
:1006A0008B4201D38B00C01A524143088B4201D3C5
:1006B0004B00C01A5241884200D3401A5241CFD257
:1006C00001461046704708B500F008FA08BD0268F8
:1006D000531C036011707047F0B585B004000F0023
:1006E00000250026002000262600E569CF2085434E
:1006F0002800B988FD880D4339890D430543E5611C
:10070000A5691F208543B9897889084328430500D6
:10071000A561684600F074F91148864201D1029E35
:1007200000E0039E30003968FFF77AFF05093000CA
:100730003968FFF775FF0007000F2562606205B09A
:10074000F0BD00B5C9B2002904D0816901220A4375
:10075000826103E08169034A0A40826100BD0000B2
:1007600000440040FEFF000000B5D2B2002A04D0D1
:10077000026989B20A43026103E0026989B28A43CD
:10078000026100BD89B2C9B2016070474068C0B261
:10079000704700B502000020906889B20840002828
:1007A00001D0012000E00020C0B200BD00B5020071
:1007B0000020D06889B20840002801D0012000E064
:1007C0000020C0B200BD89B2416170470CB410B5C1
:1007D00084B004000A0006A8029001940020009052
:1007E00002AB01A9084878441E3000F085F90021C9
:1007F000019A1170002801D40198001B04B00199DE
:1008000010BC03B0084700BFC7FEFFFF70B5002350
:1008100000260024002500220026CA7813071B0F9B
:10082000CA78D20602D51A008B7813430A781206CA
:1008300021D0026800241BE0CD78482D17D1012576
:10084000A540056113E00125A5400E882E40AE426B
:100850000DD1A5000F26AE40B24316001A00AA40E3
:100860003243CD78282DE7D10125A5404561641C90
:10087000082CE8D302600A88FF2A26D9426800249F
:1008800020E0012526000836B5400E882E40AE42F5
:1008900017D1A5000F26AE40B24316001A00AA4099
:1008A0003243CD78282D04D1012526000836B540E5
:1008B0004561CD78482D04D1012526000836B54084
:1008C0000561641C082CDCD3426070BD89B20161F3
:1008D000704789B24161704730B500230023D2B21E
:1008E0000B005B075B0F042463439A4013000A006C
:1008F00092B2D20892B2002A0CD1026A0F244907A0
:10090000490F042569438C40A2430262016A0B43EC
:1009100003620BE0426A0F244907490F042569432B
:100920008C40A2434262416A0B43436230BDFEE702
:10093000124207D08B0706D00B78491C0370401C6D
:10094000521EF7D87047830706D00B78491C0370F6
:10095000401C521EF9D1704770B4103A03D378C9C5
:10096000103A78C0FBD2530701D318C918C001D57B
:1009700008C908C0D20704D30B880380891C801CD7
:10098000002A01D50B78037070BC704710B50021A8
:100990008178002926D017490278921004235A43FF
:1009A0008958FF2203789B079B0F082463439A40D2
:1009B00091430C0041788901C9B202789207920FE5
:1009C00008235A43914021430A4A03789B10042488
:1009D0006343D15001210078C006C00E8140064813
:1009E000016006E001210078C006C00E8140034886
:1009F000016010BD00E400E000E100E080E100E003
:100A000000B5002100212E490A680C21114000295F
:100A100006D0042907D0082908D00C2909D00BE0FA
:100A2000284901600AE02749016007E02649016082
:100A300004E02649016001E02249016020490A687A
:100A4000F02111400909224A515C0268CA40426003
:100A50001B490A68E021C9001140090A1C4A515C7F
:100A60004268CA40826016490A68E0218901114043
:100A7000C90A174A515C4268CA40C26000BD00B54D
:100A8000C9B2002905D01349096808431149086013
:100A900004E01049096881430E48016000BD00B5BB
:100AA000C9B2002905D00C49096808430A49086001
:100AB00004E00949096881430748016000BD00005E
:100AC0000410024000127A00006CDC02409C00001E
:100AD00000000020141002401C100240704770B546
:100AE000060008001400002B05D01D002178B04737
:100AF000641C6D1EFAD170BDF0B589B001900C0078
:100B00000292009309E00123029A21000198FFF765
:100B1000E6FF04000298401C02900298007800282A
:100B200020D02528EFD102984678801C0290252EEF
:100B300012D0582E6DD0632E16D0642E1ED0692E82
:100B40001CD06F2E65D0702E6CD0732E74D0752E85
:100B50005FD0782E5DD0E0E725212000019A9047F4
:100B60000400DAE709B0F0BD009800680099086059
:100B70000168001D009A1060C9B2EEE70098006895
:100B8000009908600568001D00990860002D04D5D3
:100B90002D212000019A9047040064266F2E01D178
:100BA000082106E020203043782801D00A2100E007
:100BB00010210B272800642E03D1002D01D54242BD
:100BC0001000049105007F1E039728000499FFF789
:100BD00027FD3031C9B23A2902DB300051380918FB
:100BE00005A8C0190390017028000499FFF718FDAB
:100BF000050001D0002FE6DC039D20000B21CC1B5B
:100C0000AED0019E2978B0476D1C641EFAD10196C2
:100C1000A6E700980068009908600568001D009923
:100C20000860BBE700980068009908600568001D2F
:100C3000009908607826B1E700980068009908607C
:100C40000668001D00990860300000F00CF80500EF
:100C50002000002D84D0019C3178A047761C6D1EA9
:100C6000FAD101947CE7010000E0491C0A78002ACF
:100C7000FBD1081A7047FEE780B52C4800680121B7
:100C800001432A4801602A4800682A49014028484F
:100C90000160264800682849014024480160234833
:100CA000006826490140214801609F200004244932
:100CB000086000F001F801BD80B500F001F801BD49
:100CC00000B500201949096801220A4317490A6042
:100CD000164909688907FBD514490968194A0A4069
:100CE00012490A6011490968042291430F4A1160B0
:100CF0008021C9000E4A11601121134A11600C496C
:100D00000968032291430A4A1160094909680222CD
:100D10000A4307490A6004E0054800688008800724
:100D2000800FC0B20228F7D100BD000000100240C1
:100D3000041002400000FFF0FFFFF6FFFFFFFBFF83
:100D400008100240FFFFEFFF0020024070B40100D6
:100D50000122002313E00C68091D144202D04D4605
:100D60006D1E64192360241D001F0428FAD225007B
:100D7000860701D52380AD1C104000D02B70086879
:100D8000091D0028E7D1080070BC704730B401216C
:100D90000268001D002A0FD00368C3184468083099
:100DA0000C4202D04D466D1E64191D6825601B1D46
:100DB000241D121FECD0F8E730BC704710B507496E
:100DC00079441831064C7C44163404E0081D0A6846
:100DD000891888470100A142F8D110BD2C000000FD
:100DE0004C000000506C6561736520696E7075740D
:100DF0002064617461202C656E64207769746820BA
:100E0000275C6E27200D0A0045FFFFFF50020000FF
:100E1000180400200000000075FFFFFF1400000010
:100E20006C000000000000200000000000F00BF843
:100E3000002801D0FFF7C2FF002000BF00BFFFF76E
:100E400064FA00F002F80120704780B500F002F863
:100E500001BDFEE70746384600F002F8FBE7FEE773
:100E600080B500BF00BF024A11001820ABBEFBE7EF
:100E7000260002006261636B706C616E65207265B2
:100E80006365697665200D0A00000000000000001F
:100E9000010203040102030406070809006CDC02D6
:100EA000737072696E7466206F6B0D0A000000002B
:100EB0005561727453656E6441736369690D0A000C
:100EC000B1B3B0E5D2D1CAD5B5BDA3A10D0A00001A
:100ED0000148804701480047790C0008E10E0008EE
:100EE00000BF00BF00BF00BFFFF7A0FFFEE7FEE7A7
:100EF000FEE7FEE7FEE7FEE7FEE7FEE7FEE7FEE7CA
:100F0000FEE7FEE7FEE7FEE7FEE7FEE7FEE7FEE7B9
:0C0F1000FEE7FEE7FEE7FEE7FEE7FEE777
:0400000508000EE100
:00000001FF
